{"contracts/DegenToken.sol":{"DegenToken":{"abi":[{"inputs":[{"internalType":"string","name":"name","type":"string"},{"internalType":"string","name":"symbol","type":"string"}],"stateMutability":"nonpayable","type":"constructor"},{"inputs":[{"internalType":"address","name":"spender","type":"address"},{"internalType":"address","name":"from","type":"address"},{"internalType":"uint256","name":"currentAllowance","type":"uint256"},{"internalType":"uint256","name":"value","type":"uint256"}],"name":"InsufficientAllowance","type":"error"},{"inputs":[{"internalType":"address","name":"from","type":"address"},{"internalType":"uint256","name":"fromBalance","type":"uint256"},{"internalType":"uint256","name":"value","type":"uint256"}],"name":"InsufficientBalance","type":"error"},{"inputs":[{"internalType":"address","name":"_to","type":"address"}],"name":"InvalidReceiver","type":"error"},{"anonymous":false,"inputs":[{"indexed":true,"internalType":"address","name":"owner","type":"address"},{"indexed":true,"internalType":"address","name":"spender","type":"address"},{"indexed":false,"internalType":"uint256","name":"value","type":"uint256"}],"name":"Approval","type":"event"},{"anonymous":false,"inputs":[{"indexed":false,"internalType":"address","name":"from","type":"address"},{"indexed":false,"internalType":"uint256","name":"value","type":"uint256"}],"name":"Burn","type":"event"},{"anonymous":false,"inputs":[{"indexed":false,"internalType":"string","name":"name","type":"string"},{"indexed":false,"internalType":"uint256","name":"price","type":"uint256"}],"name":"ItemAdded","type":"event"},{"anonymous":false,"inputs":[{"indexed":false,"internalType":"address","name":"to","type":"address"},{"indexed":false,"internalType":"uint256","name":"value","type":"uint256"}],"name":"Mint","type":"event"},{"anonymous":false,"inputs":[{"indexed":true,"internalType":"address","name":"from","type":"address"},{"indexed":true,"internalType":"address","name":"to","type":"address"},{"indexed":false,"internalType":"uint256","name":"value","type":"uint256"}],"name":"Transfer","type":"event"},{"inputs":[{"internalType":"string","name":"itemName","type":"string"},{"internalType":"uint256","name":"itemPrice","type":"uint256"}],"name":"addItem","outputs":[],"stateMutability":"nonpayable","type":"function"},{"inputs":[{"internalType":"address","name":"owner","type":"address"},{"internalType":"address","name":"spender","type":"address"}],"name":"allowance","outputs":[{"internalType":"uint256","name":"","type":"uint256"}],"stateMutability":"view","type":"function"},{"inputs":[{"internalType":"address","name":"spender","type":"address"},{"internalType":"uint256","name":"value","type":"uint256"}],"name":"approve","outputs":[{"internalType":"bool","name":"","type":"bool"}],"stateMutability":"nonpayable","type":"function"},{"inputs":[{"internalType":"address","name":"account","type":"address"}],"name":"balanceOf","outputs":[{"internalType":"uint256","name":"","type":"uint256"}],"stateMutability":"view","type":"function"},{"inputs":[{"internalType":"uint256","name":"value","type":"uint256"}],"name":"burn","outputs":[{"internalType":"bool","name":"","type":"bool"}],"stateMutability":"nonpayable","type":"function"},{"inputs":[{"internalType":"address","name":"account","type":"address"},{"internalType":"string","name":"itemName","type":"string"}],"name":"getItemCount","outputs":[{"internalType":"uint256","name":"","type":"uint256"}],"stateMutability":"view","type":"function"},{"inputs":[{"internalType":"address","name":"account","type":"address"}],"name":"getPurchases","outputs":[{"internalType":"string[]","name":"","type":"string[]"}],"stateMutability":"view","type":"function"},{"inputs":[{"internalType":"address","name":"to","type":"address"},{"internalType":"uint256","name":"value","type":"uint256"}],"name":"mint","outputs":[{"internalType":"bool","name":"","type":"bool"}],"stateMutability":"nonpayable","type":"function"},{"inputs":[{"internalType":"string","name":"itemName","type":"string"},{"internalType":"uint256","name":"value","type":"uint256"}],"name":"redeem","outputs":[],"stateMutability":"nonpayable","type":"function"},{"inputs":[],"name":"showInventory","outputs":[{"internalType":"string","name":"","type":"string"}],"stateMutability":"view","type":"function"},{"inputs":[],"name":"totalSupply","outputs":[{"internalType":"uint256","name":"","type":"uint256"}],"stateMutability":"view","type":"function"},{"inputs":[{"internalType":"address","name":"to","type":"address"},{"internalType":"uint256","name":"value","type":"uint256"}],"name":"transfer","outputs":[{"internalType":"bool","name":"","type":"bool"}],"stateMutability":"nonpayable","type":"function"},{"inputs":[{"internalType":"address","name":"from","type":"address"},{"internalType":"address","name":"to","type":"address"},{"internalType":"uint256","name":"value","type":"uint256"}],"name":"transferFrom","outputs":[{"internalType":"bool","name":"","type":"bool"}],"stateMutability":"nonpayable","type":"function"}],"evm":{"bytecode":{"linkReferences":{},"object":"60806040526040518060400160405280600581526020017f446567656e000000000000000000000000000000000000000000000000000000815250600090816200004a91906200055b565b506040518060400160405280600381526020017f44474e0000000000000000000000000000000000000000000000000000000000815250600190816200009191906200055b565b506000600655348015620000a457600080fd5b5060405162002fa038038062002fa08339818101604052810190620000ca9190620007a6565b33600260006101000a81548173ffffffffffffffffffffffffffffffffffffffff021916908373ffffffffffffffffffffffffffffffffffffffff160217905550600860405180604001604052806040518060400160405280600581526020017f73686972740000000000000000000000000000000000000000000000000000008152508152602001600a815250908060018154018082558091505060019003906000526020600020906002020160009091909190915060008201518160000190816200019891906200055b565b50602082015181600101555050600860405180604001604052806040518060400160405280600481526020017f70616e740000000000000000000000000000000000000000000000000000000081525081526020016008815250908060018154018082558091505060019003906000526020600020906002020160009091909190915060008201518160000190816200023291906200055b565b50602082015181600101555050600860405180604001604052806040518060400160405280600481526020017f62656c74000000000000000000000000000000000000000000000000000000008152508152602001600581525090806001815401808255809150506001900390600052602060002090600202016000909190919091506000820151816000019081620002cc91906200055b565b5060208201518160010155505050506200082b565b600081519050919050565b7f4e487b7100000000000000000000000000000000000000000000000000000000600052604160045260246000fd5b7f4e487b7100000000000000000000000000000000000000000000000000000000600052602260045260246000fd5b600060028204905060018216806200036357607f821691505b6020821081036200037957620003786200031b565b5b50919050565b60008190508160005260206000209050919050565b60006020601f8301049050919050565b600082821b905092915050565b600060088302620003e37fffffffffffffffffffffffffffffffffffffffffffffffffffffffffffffffff82620003a4565b620003ef8683620003a4565b95508019841693508086168417925050509392505050565b6000819050919050565b6000819050919050565b60006200043c62000436620004308462000407565b62000411565b62000407565b9050919050565b6000819050919050565b62000458836200041b565b62000470620004678262000443565b848454620003b1565b825550505050565b600090565b6200048762000478565b620004948184846200044d565b505050565b5b81811015620004bc57620004b06000826200047d565b6001810190506200049a565b5050565b601f8211156200050b57620004d5816200037f565b620004e08462000394565b81016020851015620004f0578190505b62000508620004ff8562000394565b83018262000499565b50505b505050565b600082821c905092915050565b6000620005306000198460080262000510565b1980831691505092915050565b60006200054b83836200051d565b9150826002028217905092915050565b6200056682620002e1565b67ffffffffffffffff811115620005825762000581620002ec565b5b6200058e82546200034a565b6200059b828285620004c0565b600060209050601f831160018114620005d35760008415620005be578287015190505b620005ca85826200053d565b8655506200063a565b601f198416620005e3866200037f565b60005b828110156200060d57848901518255600182019150602085019450602081019050620005e6565b868310156200062d578489015162000629601f8916826200051d565b8355505b6001600288020188555050505b505050505050565b6000604051905090565b600080fd5b600080fd5b600080fd5b600080fd5b6000601f19601f8301169050919050565b6200067c8262000660565b810181811067ffffffffffffffff821117156200069e576200069d620002ec565b5b80604052505050565b6000620006b362000642565b9050620006c1828262000671565b919050565b600067ffffffffffffffff821115620006e457620006e3620002ec565b5b620006ef8262000660565b9050602081019050919050565b60005b838110156200071c578082015181840152602081019050620006ff565b60008484015250505050565b60006200073f6200073984620006c6565b620006a7565b9050828152602081018484840111156200075e576200075d6200065b565b5b6200076b848285620006fc565b509392505050565b600082601f8301126200078b576200078a62000656565b5b81516200079d84826020860162000728565b91505092915050565b60008060408385031215620007c057620007bf6200064c565b5b600083015167ffffffffffffffff811115620007e157620007e062000651565b5b620007ef8582860162000773565b925050602083015167ffffffffffffffff81111562000813576200081262000651565b5b620008218582860162000773565b9150509250929050565b612765806200083b6000396000f3fe608060405234801561001057600080fd5b50600436106100cf5760003560e01c806362d6bbdf1161008c578063a9059cbb11610066578063a9059cbb1461024c578063b1b86b131461027c578063dd62ed3e14610298578063e211cd6d146102c8576100cf565b806362d6bbdf146101d057806370a08231146101ec57806370cd5a801461021c576100cf565b8063095ea7b3146100d457806318160ddd1461010457806323b872dd14610122578063314563c41461015257806340c10f191461017057806342966c68146101a0575b600080fd5b6100ee60048036038101906100e991906117d0565b6102f8565b6040516100fb919061182b565b60405180910390f35b61010c610556565b6040516101199190611855565b60405180910390f35b61013c60048036038101906101379190611870565b610560565b604051610149919061182b565b60405180910390f35b61015a6107fe565b6040516101679190611953565b60405180910390f35b61018a600480360381019061018591906117d0565b6108f2565b604051610197919061182b565b60405180910390f35b6101ba60048036038101906101b59190611975565b610a36565b6040516101c7919061182b565b60405180910390f35b6101ea60048036038101906101e59190611ad7565b610bbb565b005b61020660048036038101906102019190611b33565b610cea565b6040516102139190611855565b60405180910390f35b61023660048036038101906102319190611b33565b610d33565b6040516102439190611c6c565b60405180910390f35b610266600480360381019061026191906117d0565b610e4b565b604051610273919061182b565b60405180910390f35b61029660048036038101906102919190611ad7565b6110ac565b005b6102b260048036038101906102ad9190611c8e565b6114b3565b6040516102bf9190611855565b60405180910390f35b6102e260048036038101906102dd9190611cce565b61153a565b6040516102ef9190611855565b60405180910390f35b6000803390506000600360008373ffffffffffffffffffffffffffffffffffffffff1673ffffffffffffffffffffffffffffffffffffffff168152602001908152602001600020549050600073ffffffffffffffffffffffffffffffffffffffff168573ffffffffffffffffffffffffffffffffffffffff16036103b357846040517f9cfea5830000000000000000000000000000000000000000000000000000000081526004016103aa9190611d39565b60405180910390fd5b838110156103fc578181856040517fdb42144d0000000000000000000000000000000000000000000000000000000081526004016103f393929190611d54565b60405180910390fd5b83600360008473ffffffffffffffffffffffffffffffffffffffff1673ffffffffffffffffffffffffffffffffffffffff168152602001908152602001600020600082825461044b9190611dba565b9250508190555083600760008473ffffffffffffffffffffffffffffffffffffffff1673ffffffffffffffffffffffffffffffffffffffff16815260200190815260200160002060008773ffffffffffffffffffffffffffffffffffffffff1673ffffffffffffffffffffffffffffffffffffffff16815260200190815260200160002060008282546104de9190611dee565b925050819055508473ffffffffffffffffffffffffffffffffffffffff168273ffffffffffffffffffffffffffffffffffffffff167f8c5be1e5ebec7d5bd14f71427d1e84f3dd0314c0f7b2291e5b200ac8c7c3b925866040516105429190611855565b60405180910390a360019250505092915050565b6000600654905090565b6000803390506000600760008773ffffffffffffffffffffffffffffffffffffffff1673ffffffffffffffffffffffffffffffffffffffff16815260200190815260200160002060008373ffffffffffffffffffffffffffffffffffffffff1673ffffffffffffffffffffffffffffffffffffffff168152602001908152602001600020549050600073ffffffffffffffffffffffffffffffffffffffff168573ffffffffffffffffffffffffffffffffffffffff160361065857846040517f9cfea58300000000000000000000000000000000000000000000000000000000815260040161064f9190611d39565b60405180910390fd5b838110156106a357818682866040517f91beda2400000000000000000000000000000000000000000000000000000000815260040161069a9493929190611e22565b60405180910390fd5b83600760008873ffffffffffffffffffffffffffffffffffffffff1673ffffffffffffffffffffffffffffffffffffffff16815260200190815260200160002060008473ffffffffffffffffffffffffffffffffffffffff1673ffffffffffffffffffffffffffffffffffffffff168152602001908152602001600020600082825461072f9190611dba565b9250508190555083600360008773ffffffffffffffffffffffffffffffffffffffff1673ffffffffffffffffffffffffffffffffffffffff16815260200190815260200160002060008282546107859190611dee565b925050819055508473ffffffffffffffffffffffffffffffffffffffff168673ffffffffffffffffffffffffffffffffffffffff167fddf252ad1be2c89b69c2b068fc378daa952ba7f163c4a11628f55a4df523b3ef866040516107e99190611855565b60405180910390a36001925050509392505050565b6060600060405180602001604052806000815250905060005b6008805490508110156108ea57816008828154811061083957610838611e67565b5b90600052602060002090600202016000016108786008848154811061086157610860611e67565b5b9060005260206000209060020201600101546115a0565b60405160200161088a93929190612062565b604051602081830303815290604052915060016008805490506108ad9190611dba565b8110156108d757816040516020016108c591906120f5565b60405160208183030381529060405291505b80806108e290612117565b915050610817565b508091505090565b6000600260009054906101000a900473ffffffffffffffffffffffffffffffffffffffff1673ffffffffffffffffffffffffffffffffffffffff163373ffffffffffffffffffffffffffffffffffffffff1614610984576040517f08c379a000000000000000000000000000000000000000000000000000000000815260040161097b906121d1565b60405180910390fd5b81600360008573ffffffffffffffffffffffffffffffffffffffff1673ffffffffffffffffffffffffffffffffffffffff16815260200190815260200160002060008282546109d39190611dee565b9250508190555081600660008282546109ec9190611dee565b925050819055507f0f6798a560793a54c3bcfe86a93cde1e73087d944c0ea20544137d41213968858383604051610a249291906121f1565b60405180910390a16001905092915050565b6000803390506000600360008373ffffffffffffffffffffffffffffffffffffffff1673ffffffffffffffffffffffffffffffffffffffff16815260200190815260200160002054905083600360008473ffffffffffffffffffffffffffffffffffffffff1673ffffffffffffffffffffffffffffffffffffffff168152602001908152602001600020541015610b08578181856040517fdb42144d000000000000000000000000000000000000000000000000000000008152600401610aff93929190611d54565b60405180910390fd5b83600360008473ffffffffffffffffffffffffffffffffffffffff1673ffffffffffffffffffffffffffffffffffffffff1681526020019081526020016000206000828254610b579190611dba565b925050819055508360066000828254610b709190611dba565b925050819055507fcc16f5dbb4873280815c1ee09dbd06736cffcc184412cf7a71a0fdb75d397ca58285604051610ba89291906121f1565b60405180910390a1600192505050919050565b600260009054906101000a900473ffffffffffffffffffffffffffffffffffffffff1673ffffffffffffffffffffffffffffffffffffffff163373ffffffffffffffffffffffffffffffffffffffff1614610c4b576040517f08c379a0000000000000000000000000000000000000000000000000000000008152600401610c429061228c565b60405180910390fd5b600860405180604001604052808481526020018381525090806001815401808255809150506001900390600052602060002090600202016000909190919091506000820151816000019081610ca09190612443565b506020820151816001015550507fe4cee8b4b346e9fc68b7e9892799bbd7758269373bcf9da8bcb20e89ade95c1d8282604051610cde929190612515565b60405180910390a15050565b6000600360008373ffffffffffffffffffffffffffffffffffffffff1673ffffffffffffffffffffffffffffffffffffffff168152602001908152602001600020549050919050565b6060600460008373ffffffffffffffffffffffffffffffffffffffff1673ffffffffffffffffffffffffffffffffffffffff168152602001908152602001600020805480602002602001604051908101604052809291908181526020016000905b82821015610e40578382906000526020600020018054610db390611f01565b80601f0160208091040260200160405190810160405280929190818152602001828054610ddf90611f01565b8015610e2c5780601f10610e0157610100808354040283529160200191610e2c565b820191906000526020600020905b815481529060010190602001808311610e0f57829003601f168201915b505050505081526020019060010190610d94565b505050509050919050565b60008073ffffffffffffffffffffffffffffffffffffffff168373ffffffffffffffffffffffffffffffffffffffff1603610ebe5760006040517f9cfea583000000000000000000000000000000000000000000000000000000008152600401610eb59190611d39565b60405180910390fd5b60003390506000600360008373ffffffffffffffffffffffffffffffffffffffff1673ffffffffffffffffffffffffffffffffffffffff16815260200190815260200160002054905083600360008473ffffffffffffffffffffffffffffffffffffffff1673ffffffffffffffffffffffffffffffffffffffff168152602001908152602001600020541015610f8f578181856040517fdb42144d000000000000000000000000000000000000000000000000000000008152600401610f8693929190611d54565b60405180910390fd5b83600360008473ffffffffffffffffffffffffffffffffffffffff1673ffffffffffffffffffffffffffffffffffffffff1681526020019081526020016000206000828254610fde9190611dba565b9250508190555083600360008773ffffffffffffffffffffffffffffffffffffffff1673ffffffffffffffffffffffffffffffffffffffff16815260200190815260200160002060008282546110349190611dee565b925050819055508473ffffffffffffffffffffffffffffffffffffffff168273ffffffffffffffffffffffffffffffffffffffff167fddf252ad1be2c89b69c2b068fc378daa952ba7f163c4a11628f55a4df523b3ef866040516110989190611855565b60405180910390a360019250505092915050565b60003390506000600360008373ffffffffffffffffffffffffffffffffffffffff1673ffffffffffffffffffffffffffffffffffffffff16815260200190815260200160002054905082600360008473ffffffffffffffffffffffffffffffffffffffff1673ffffffffffffffffffffffffffffffffffffffff16815260200190815260200160002054101561117d578181846040517fdb42144d00000000000000000000000000000000000000000000000000000000815260040161117493929190611d54565b60405180910390fd5b6000806000905060005b60088054905081101561124f57866040516020016111a59190612545565b60405160208183030381529060405280519060200120600882815481106111cf576111ce611e67565b5b90600052602060002090600202016000016040516020016111f0919061255c565b604051602081830303815290604052805190602001200361123c576008818154811061121f5761121e611e67565b5b90600052602060002090600202016001015492506001915061124f565b808061124790612117565b915050611187565b5080611290576040517f08c379a0000000000000000000000000000000000000000000000000000000008152600401611287906125bf565b60405180910390fd5b8185146112d2576040517f08c379a00000000000000000000000000000000000000000000000000000000081526004016112c99061262b565b60405180910390fd5b84600360008673ffffffffffffffffffffffffffffffffffffffff1673ffffffffffffffffffffffffffffffffffffffff16815260200190815260200160002060008282546113219190611dba565b92505081905550600460008573ffffffffffffffffffffffffffffffffffffffff1673ffffffffffffffffffffffffffffffffffffffff168152602001908152602001600020869080600181540180825580915050600190039060005260206000200160009091909190915090816113999190612443565b506001600560008673ffffffffffffffffffffffffffffffffffffffff1673ffffffffffffffffffffffffffffffffffffffff168152602001908152602001600020876040516113e99190612545565b908152602001604051809103902060008282546114069190611dee565b925050819055503073ffffffffffffffffffffffffffffffffffffffff168473ffffffffffffffffffffffffffffffffffffffff167fddf252ad1be2c89b69c2b068fc378daa952ba7f163c4a11628f55a4df523b3ef8760405161146a9190611855565b60405180910390a37fcc16f5dbb4873280815c1ee09dbd06736cffcc184412cf7a71a0fdb75d397ca584866040516114a39291906121f1565b60405180910390a1505050505050565b6000600760008473ffffffffffffffffffffffffffffffffffffffff1673ffffffffffffffffffffffffffffffffffffffff16815260200190815260200160002060008373ffffffffffffffffffffffffffffffffffffffff1673ffffffffffffffffffffffffffffffffffffffff16815260200190815260200160002054905092915050565b6000600560008473ffffffffffffffffffffffffffffffffffffffff1673ffffffffffffffffffffffffffffffffffffffff168152602001908152602001600020826040516115899190612545565b908152602001604051809103902054905092915050565b6060600082036115e7576040518060400160405280600181526020017f30000000000000000000000000000000000000000000000000000000000000008152509050611723565b600082905060005b6000821461161957808061160290612117565b915050600a82611612919061267a565b91506115ef565b60008167ffffffffffffffff811115611635576116346119ac565b5b6040519080825280601f01601f1916602001820160405280156116675781602001600182028036833780820191505090505b50905060008290505b6000861461171b576001816116859190611dba565b90506000600a8088611697919061267a565b6116a191906126ab565b876116ac9190611dba565b60306116b891906126fa565b905060008160f81b9050808484815181106116d6576116d5611e67565b5b60200101907effffffffffffffffffffffffffffffffffffffffffffffffffffffffffffff1916908160001a905350600a88611712919061267a565b97505050611670565b819450505050505b919050565b6000604051905090565b600080fd5b600080fd5b600073ffffffffffffffffffffffffffffffffffffffff82169050919050565b60006117678261173c565b9050919050565b6117778161175c565b811461178257600080fd5b50565b6000813590506117948161176e565b92915050565b6000819050919050565b6117ad8161179a565b81146117b857600080fd5b50565b6000813590506117ca816117a4565b92915050565b600080604083850312156117e7576117e6611732565b5b60006117f585828601611785565b9250506020611806858286016117bb565b9150509250929050565b60008115159050919050565b61182581611810565b82525050565b6000602082019050611840600083018461181c565b92915050565b61184f8161179a565b82525050565b600060208201905061186a6000830184611846565b92915050565b60008060006060848603121561188957611888611732565b5b600061189786828701611785565b93505060206118a886828701611785565b92505060406118b9868287016117bb565b9150509250925092565b600081519050919050565b600082825260208201905092915050565b60005b838110156118fd5780820151818401526020810190506118e2565b60008484015250505050565b6000601f19601f8301169050919050565b6000611925826118c3565b61192f81856118ce565b935061193f8185602086016118df565b61194881611909565b840191505092915050565b6000602082019050818103600083015261196d818461191a565b905092915050565b60006020828403121561198b5761198a611732565b5b6000611999848285016117bb565b91505092915050565b600080fd5b600080fd5b7f4e487b7100000000000000000000000000000000000000000000000000000000600052604160045260246000fd5b6119e482611909565b810181811067ffffffffffffffff82111715611a0357611a026119ac565b5b80604052505050565b6000611a16611728565b9050611a2282826119db565b919050565b600067ffffffffffffffff821115611a4257611a416119ac565b5b611a4b82611909565b9050602081019050919050565b82818337600083830152505050565b6000611a7a611a7584611a27565b611a0c565b905082815260208101848484011115611a9657611a956119a7565b5b611aa1848285611a58565b509392505050565b600082601f830112611abe57611abd6119a2565b5b8135611ace848260208601611a67565b91505092915050565b60008060408385031215611aee57611aed611732565b5b600083013567ffffffffffffffff811115611b0c57611b0b611737565b5b611b1885828601611aa9565b9250506020611b29858286016117bb565b9150509250929050565b600060208284031215611b4957611b48611732565b5b6000611b5784828501611785565b91505092915050565b600081519050919050565b600082825260208201905092915050565b6000819050602082019050919050565b600082825260208201905092915050565b6000611ba8826118c3565b611bb28185611b8c565b9350611bc28185602086016118df565b611bcb81611909565b840191505092915050565b6000611be28383611b9d565b905092915050565b6000602082019050919050565b6000611c0282611b60565b611c0c8185611b6b565b935083602082028501611c1e85611b7c565b8060005b85811015611c5a5784840389528151611c3b8582611bd6565b9450611c4683611bea565b925060208a01995050600181019050611c22565b50829750879550505050505092915050565b60006020820190508181036000830152611c868184611bf7565b905092915050565b60008060408385031215611ca557611ca4611732565b5b6000611cb385828601611785565b9250506020611cc485828601611785565b9150509250929050565b60008060408385031215611ce557611ce4611732565b5b6000611cf385828601611785565b925050602083013567ffffffffffffffff811115611d1457611d13611737565b5b611d2085828601611aa9565b9150509250929050565b611d338161175c565b82525050565b6000602082019050611d4e6000830184611d2a565b92915050565b6000606082019050611d696000830186611d2a565b611d766020830185611846565b611d836040830184611846565b949350505050565b7f4e487b7100000000000000000000000000000000000000000000000000000000600052601160045260246000fd5b6000611dc58261179a565b9150611dd08361179a565b9250828203905081811115611de857611de7611d8b565b5b92915050565b6000611df98261179a565b9150611e048361179a565b9250828201905080821115611e1c57611e1b611d8b565b5b92915050565b6000608082019050611e376000830187611d2a565b611e446020830186611d2a565b611e516040830185611846565b611e5e6060830184611846565b95945050505050565b7f4e487b7100000000000000000000000000000000000000000000000000000000600052603260045260246000fd5b600081905092915050565b6000611eac826118c3565b611eb68185611e96565b9350611ec68185602086016118df565b80840191505092915050565b7f4e487b7100000000000000000000000000000000000000000000000000000000600052602260045260246000fd5b60006002820490506001821680611f1957607f821691505b602082108103611f2c57611f2b611ed2565b5b50919050565b60008190508160005260206000209050919050565b60008154611f5481611f01565b611f5e8186611e96565b94506001821660008114611f795760018114611f8e57611fc1565b60ff1983168652811515820286019350611fc1565b611f9785611f32565b60005b83811015611fb957815481890152600182019150602081019050611f9a565b838801955050505b50505092915050565b7f2800000000000000000000000000000000000000000000000000000000000000600082015250565b6000612000600183611e96565b915061200b82611fca565b600182019050919050565b7f2900000000000000000000000000000000000000000000000000000000000000600082015250565b600061204c600183611e96565b915061205782612016565b600182019050919050565b600061206e8286611ea1565b915061207a8285611f47565b915061208582611ff3565b91506120918284611ea1565b915061209c8261203f565b9150819050949350505050565b7f2c20000000000000000000000000000000000000000000000000000000000000600082015250565b60006120df600283611e96565b91506120ea826120a9565b600282019050919050565b60006121018284611ea1565b915061210c826120d2565b915081905092915050565b60006121228261179a565b91507fffffffffffffffffffffffffffffffffffffffffffffffffffffffffffffffff820361215457612153611d8b565b5b600182019050919050565b7f4f6e6c79206f776e657220697320616c6c6f77656420746f20706572666f726d60008201527f2074686973206f7065726174696f6e0000000000000000000000000000000000602082015250565b60006121bb602f836118ce565b91506121c68261215f565b604082019050919050565b600060208201905081810360008301526121ea816121ae565b9050919050565b60006040820190506122066000830185611d2a565b6122136020830184611846565b9392505050565b7f4f6e6c79206f776e65722063616e20616464206974656d7320746f207468652060008201527f696e76656e746f72790000000000000000000000000000000000000000000000602082015250565b60006122766029836118ce565b91506122818261221a565b604082019050919050565b600060208201905081810360008301526122a581612269565b9050919050565b60006020601f8301049050919050565b600082821b905092915050565b6000600883026122f97fffffffffffffffffffffffffffffffffffffffffffffffffffffffffffffffff826122bc565b61230386836122bc565b95508019841693508086168417925050509392505050565b6000819050919050565b600061234061233b6123368461179a565b61231b565b61179a565b9050919050565b6000819050919050565b61235a83612325565b61236e61236682612347565b8484546122c9565b825550505050565b600090565b612383612376565b61238e818484612351565b505050565b5b818110156123b2576123a760008261237b565b600181019050612394565b5050565b601f8211156123f7576123c881611f32565b6123d1846122ac565b810160208510156123e0578190505b6123f46123ec856122ac565b830182612393565b50505b505050565b600082821c905092915050565b600061241a600019846008026123fc565b1980831691505092915050565b60006124338383612409565b9150826002028217905092915050565b61244c826118c3565b67ffffffffffffffff811115612465576124646119ac565b5b61246f8254611f01565b61247a8282856123b6565b600060209050601f8311600181146124ad576000841561249b578287015190505b6124a58582612427565b86555061250d565b601f1984166124bb86611f32565b60005b828110156124e3578489015182556001820191506020850194506020810190506124be565b8683101561250057848901516124fc601f891682612409565b8355505b6001600288020188555050505b505050505050565b6000604082019050818103600083015261252f818561191a565b905061253e6020830184611846565b9392505050565b60006125518284611ea1565b915081905092915050565b60006125688284611f47565b915081905092915050565b7f4974656d206e6f7420666f756e6420696e20696e76656e746f72790000000000600082015250565b60006125a9601b836118ce565b91506125b482612573565b602082019050919050565b600060208201905081810360008301526125d88161259c565b9050919050565b7f496e636f72726563742076616c75652073656e74000000000000000000000000600082015250565b60006126156014836118ce565b9150612620826125df565b602082019050919050565b6000602082019050818103600083015261264481612608565b9050919050565b7f4e487b7100000000000000000000000000000000000000000000000000000000600052601260045260246000fd5b60006126858261179a565b91506126908361179a565b9250826126a05761269f61264b565b5b828204905092915050565b60006126b68261179a565b91506126c18361179a565b92508282026126cf8161179a565b915082820484148315176126e6576126e5611d8b565b5b5092915050565b600060ff82169050919050565b6000612705826126ed565b9150612710836126ed565b9250828201905060ff81111561272957612728611d8b565b5b9291505056fea2646970667358221220549fb3e85e9802845c44a0efa62901033f319ffaeb6cce9a6526c321481337cf64736f6c63430008140033","opcodes":"PUSH1 0x80 PUSH1 0x40 MSTORE PUSH1 0x40 MLOAD DUP1 PUSH1 0x40 ADD PUSH1 0x40 MSTORE DUP1 PUSH1 0x5 DUP2 MSTORE PUSH1 0x20 ADD PUSH32 0x446567656E000000000000000000000000000000000000000000000000000000 DUP2 MSTORE POP PUSH1 0x0 SWAP1 DUP2 PUSH3 0x4A SWAP2 SWAP1 PUSH3 0x55B JUMP JUMPDEST POP PUSH1 0x40 MLOAD DUP1 PUSH1 0x40 ADD PUSH1 0x40 MSTORE DUP1 PUSH1 0x3 DUP2 MSTORE PUSH1 0x20 ADD PUSH32 0x44474E0000000000000000000000000000000000000000000000000000000000 DUP2 MSTORE POP PUSH1 0x1 SWAP1 DUP2 PUSH3 0x91 SWAP2 SWAP1 PUSH3 0x55B JUMP JUMPDEST POP PUSH1 0x0 PUSH1 0x6 SSTORE CALLVALUE DUP1 ISZERO PUSH3 0xA4 JUMPI PUSH1 0x0 DUP1 REVERT JUMPDEST POP PUSH1 0x40 MLOAD PUSH3 0x2FA0 CODESIZE SUB DUP1 PUSH3 0x2FA0 DUP4 CODECOPY DUP2 DUP2 ADD PUSH1 0x40 MSTORE DUP2 ADD SWAP1 PUSH3 0xCA SWAP2 SWAP1 PUSH3 0x7A6 JUMP JUMPDEST CALLER PUSH1 0x2 PUSH1 0x0 PUSH2 0x100 EXP DUP2 SLOAD DUP2 PUSH20 0xFFFFFFFFFFFFFFFFFFFFFFFFFFFFFFFFFFFFFFFF MUL NOT AND SWAP1 DUP4 PUSH20 0xFFFFFFFFFFFFFFFFFFFFFFFFFFFFFFFFFFFFFFFF AND MUL OR SWAP1 SSTORE POP PUSH1 0x8 PUSH1 0x40 MLOAD DUP1 PUSH1 0x40 ADD PUSH1 0x40 MSTORE DUP1 PUSH1 0x40 MLOAD DUP1 PUSH1 0x40 ADD PUSH1 0x40 MSTORE DUP1 PUSH1 0x5 DUP2 MSTORE PUSH1 0x20 ADD PUSH32 0x7368697274000000000000000000000000000000000000000000000000000000 DUP2 MSTORE POP DUP2 MSTORE PUSH1 0x20 ADD PUSH1 0xA DUP2 MSTORE POP SWAP1 DUP1 PUSH1 0x1 DUP2 SLOAD ADD DUP1 DUP3 SSTORE DUP1 SWAP2 POP POP PUSH1 0x1 SWAP1 SUB SWAP1 PUSH1 0x0 MSTORE PUSH1 0x20 PUSH1 0x0 KECCAK256 SWAP1 PUSH1 0x2 MUL ADD PUSH1 0x0 SWAP1 SWAP2 SWAP1 SWAP2 SWAP1 SWAP2 POP PUSH1 0x0 DUP3 ADD MLOAD DUP2 PUSH1 0x0 ADD SWAP1 DUP2 PUSH3 0x198 SWAP2 SWAP1 PUSH3 0x55B JUMP JUMPDEST POP PUSH1 0x20 DUP3 ADD MLOAD DUP2 PUSH1 0x1 ADD SSTORE POP POP PUSH1 0x8 PUSH1 0x40 MLOAD DUP1 PUSH1 0x40 ADD PUSH1 0x40 MSTORE DUP1 PUSH1 0x40 MLOAD DUP1 PUSH1 0x40 ADD PUSH1 0x40 MSTORE DUP1 PUSH1 0x4 DUP2 MSTORE PUSH1 0x20 ADD PUSH32 0x70616E7400000000000000000000000000000000000000000000000000000000 DUP2 MSTORE POP DUP2 MSTORE PUSH1 0x20 ADD PUSH1 0x8 DUP2 MSTORE POP SWAP1 DUP1 PUSH1 0x1 DUP2 SLOAD ADD DUP1 DUP3 SSTORE DUP1 SWAP2 POP POP PUSH1 0x1 SWAP1 SUB SWAP1 PUSH1 0x0 MSTORE PUSH1 0x20 PUSH1 0x0 KECCAK256 SWAP1 PUSH1 0x2 MUL ADD PUSH1 0x0 SWAP1 SWAP2 SWAP1 SWAP2 SWAP1 SWAP2 POP PUSH1 0x0 DUP3 ADD MLOAD DUP2 PUSH1 0x0 ADD SWAP1 DUP2 PUSH3 0x232 SWAP2 SWAP1 PUSH3 0x55B JUMP JUMPDEST POP PUSH1 0x20 DUP3 ADD MLOAD DUP2 PUSH1 0x1 ADD SSTORE POP POP PUSH1 0x8 PUSH1 0x40 MLOAD DUP1 PUSH1 0x40 ADD PUSH1 0x40 MSTORE DUP1 PUSH1 0x40 MLOAD DUP1 PUSH1 0x40 ADD PUSH1 0x40 MSTORE DUP1 PUSH1 0x4 DUP2 MSTORE PUSH1 0x20 ADD PUSH32 0x62656C7400000000000000000000000000000000000000000000000000000000 DUP2 MSTORE POP DUP2 MSTORE PUSH1 0x20 ADD PUSH1 0x5 DUP2 MSTORE POP SWAP1 DUP1 PUSH1 0x1 DUP2 SLOAD ADD DUP1 DUP3 SSTORE DUP1 SWAP2 POP POP PUSH1 0x1 SWAP1 SUB SWAP1 PUSH1 0x0 MSTORE PUSH1 0x20 PUSH1 0x0 KECCAK256 SWAP1 PUSH1 0x2 MUL ADD PUSH1 0x0 SWAP1 SWAP2 SWAP1 SWAP2 SWAP1 SWAP2 POP PUSH1 0x0 DUP3 ADD MLOAD DUP2 PUSH1 0x0 ADD SWAP1 DUP2 PUSH3 0x2CC SWAP2 SWAP1 PUSH3 0x55B JUMP JUMPDEST POP PUSH1 0x20 DUP3 ADD MLOAD DUP2 PUSH1 0x1 ADD SSTORE POP POP POP POP PUSH3 0x82B JUMP JUMPDEST PUSH1 0x0 DUP2 MLOAD SWAP1 POP SWAP2 SWAP1 POP JUMP JUMPDEST PUSH32 0x4E487B7100000000000000000000000000000000000000000000000000000000 PUSH1 0x0 MSTORE PUSH1 0x41 PUSH1 0x4 MSTORE PUSH1 0x24 PUSH1 0x0 REVERT JUMPDEST PUSH32 0x4E487B7100000000000000000000000000000000000000000000000000000000 PUSH1 0x0 MSTORE PUSH1 0x22 PUSH1 0x4 MSTORE PUSH1 0x24 PUSH1 0x0 REVERT JUMPDEST PUSH1 0x0 PUSH1 0x2 DUP3 DIV SWAP1 POP PUSH1 0x1 DUP3 AND DUP1 PUSH3 0x363 JUMPI PUSH1 0x7F DUP3 AND SWAP2 POP JUMPDEST PUSH1 0x20 DUP3 LT DUP2 SUB PUSH3 0x379 JUMPI PUSH3 0x378 PUSH3 0x31B JUMP JUMPDEST JUMPDEST POP SWAP2 SWAP1 POP JUMP JUMPDEST PUSH1 0x0 DUP2 SWAP1 POP DUP2 PUSH1 0x0 MSTORE PUSH1 0x20 PUSH1 0x0 KECCAK256 SWAP1 POP SWAP2 SWAP1 POP JUMP JUMPDEST PUSH1 0x0 PUSH1 0x20 PUSH1 0x1F DUP4 ADD DIV SWAP1 POP SWAP2 SWAP1 POP JUMP JUMPDEST PUSH1 0x0 DUP3 DUP3 SHL SWAP1 POP SWAP3 SWAP2 POP POP JUMP JUMPDEST PUSH1 0x0 PUSH1 0x8 DUP4 MUL PUSH3 0x3E3 PUSH32 0xFFFFFFFFFFFFFFFFFFFFFFFFFFFFFFFFFFFFFFFFFFFFFFFFFFFFFFFFFFFFFFFF DUP3 PUSH3 0x3A4 JUMP JUMPDEST PUSH3 0x3EF DUP7 DUP4 PUSH3 0x3A4 JUMP JUMPDEST SWAP6 POP DUP1 NOT DUP5 AND SWAP4 POP DUP1 DUP7 AND DUP5 OR SWAP3 POP POP POP SWAP4 SWAP3 POP POP POP JUMP JUMPDEST PUSH1 0x0 DUP2 SWAP1 POP SWAP2 SWAP1 POP JUMP JUMPDEST PUSH1 0x0 DUP2 SWAP1 POP SWAP2 SWAP1 POP JUMP JUMPDEST PUSH1 0x0 PUSH3 0x43C PUSH3 0x436 PUSH3 0x430 DUP5 PUSH3 0x407 JUMP JUMPDEST PUSH3 0x411 JUMP JUMPDEST PUSH3 0x407 JUMP JUMPDEST SWAP1 POP SWAP2 SWAP1 POP JUMP JUMPDEST PUSH1 0x0 DUP2 SWAP1 POP SWAP2 SWAP1 POP JUMP JUMPDEST PUSH3 0x458 DUP4 PUSH3 0x41B JUMP JUMPDEST PUSH3 0x470 PUSH3 0x467 DUP3 PUSH3 0x443 JUMP JUMPDEST DUP5 DUP5 SLOAD PUSH3 0x3B1 JUMP JUMPDEST DUP3 SSTORE POP POP POP POP JUMP JUMPDEST PUSH1 0x0 SWAP1 JUMP JUMPDEST PUSH3 0x487 PUSH3 0x478 JUMP JUMPDEST PUSH3 0x494 DUP2 DUP5 DUP5 PUSH3 0x44D JUMP JUMPDEST POP POP POP JUMP JUMPDEST JUMPDEST DUP2 DUP2 LT ISZERO PUSH3 0x4BC JUMPI PUSH3 0x4B0 PUSH1 0x0 DUP3 PUSH3 0x47D JUMP JUMPDEST PUSH1 0x1 DUP2 ADD SWAP1 POP PUSH3 0x49A JUMP JUMPDEST POP POP JUMP JUMPDEST PUSH1 0x1F DUP3 GT ISZERO PUSH3 0x50B JUMPI PUSH3 0x4D5 DUP2 PUSH3 0x37F JUMP JUMPDEST PUSH3 0x4E0 DUP5 PUSH3 0x394 JUMP JUMPDEST DUP2 ADD PUSH1 0x20 DUP6 LT ISZERO PUSH3 0x4F0 JUMPI DUP2 SWAP1 POP JUMPDEST PUSH3 0x508 PUSH3 0x4FF DUP6 PUSH3 0x394 JUMP JUMPDEST DUP4 ADD DUP3 PUSH3 0x499 JUMP JUMPDEST POP POP JUMPDEST POP POP POP JUMP JUMPDEST PUSH1 0x0 DUP3 DUP3 SHR SWAP1 POP SWAP3 SWAP2 POP POP JUMP JUMPDEST PUSH1 0x0 PUSH3 0x530 PUSH1 0x0 NOT DUP5 PUSH1 0x8 MUL PUSH3 0x510 JUMP JUMPDEST NOT DUP1 DUP4 AND SWAP2 POP POP SWAP3 SWAP2 POP POP JUMP JUMPDEST PUSH1 0x0 PUSH3 0x54B DUP4 DUP4 PUSH3 0x51D JUMP JUMPDEST SWAP2 POP DUP3 PUSH1 0x2 MUL DUP3 OR SWAP1 POP SWAP3 SWAP2 POP POP JUMP JUMPDEST PUSH3 0x566 DUP3 PUSH3 0x2E1 JUMP JUMPDEST PUSH8 0xFFFFFFFFFFFFFFFF DUP2 GT ISZERO PUSH3 0x582 JUMPI PUSH3 0x581 PUSH3 0x2EC JUMP JUMPDEST JUMPDEST PUSH3 0x58E DUP3 SLOAD PUSH3 0x34A JUMP JUMPDEST PUSH3 0x59B DUP3 DUP3 DUP6 PUSH3 0x4C0 JUMP JUMPDEST PUSH1 0x0 PUSH1 0x20 SWAP1 POP PUSH1 0x1F DUP4 GT PUSH1 0x1 DUP2 EQ PUSH3 0x5D3 JUMPI PUSH1 0x0 DUP5 ISZERO PUSH3 0x5BE JUMPI DUP3 DUP8 ADD MLOAD SWAP1 POP JUMPDEST PUSH3 0x5CA DUP6 DUP3 PUSH3 0x53D JUMP JUMPDEST DUP7 SSTORE POP PUSH3 0x63A JUMP JUMPDEST PUSH1 0x1F NOT DUP5 AND PUSH3 0x5E3 DUP7 PUSH3 0x37F JUMP JUMPDEST PUSH1 0x0 JUMPDEST DUP3 DUP2 LT ISZERO PUSH3 0x60D JUMPI DUP5 DUP10 ADD MLOAD DUP3 SSTORE PUSH1 0x1 DUP3 ADD SWAP2 POP PUSH1 0x20 DUP6 ADD SWAP5 POP PUSH1 0x20 DUP2 ADD SWAP1 POP PUSH3 0x5E6 JUMP JUMPDEST DUP7 DUP4 LT ISZERO PUSH3 0x62D JUMPI DUP5 DUP10 ADD MLOAD PUSH3 0x629 PUSH1 0x1F DUP10 AND DUP3 PUSH3 0x51D JUMP JUMPDEST DUP4 SSTORE POP JUMPDEST PUSH1 0x1 PUSH1 0x2 DUP9 MUL ADD DUP9 SSTORE POP POP POP JUMPDEST POP POP POP POP POP POP JUMP JUMPDEST PUSH1 0x0 PUSH1 0x40 MLOAD SWAP1 POP SWAP1 JUMP JUMPDEST PUSH1 0x0 DUP1 REVERT JUMPDEST PUSH1 0x0 DUP1 REVERT JUMPDEST PUSH1 0x0 DUP1 REVERT JUMPDEST PUSH1 0x0 DUP1 REVERT JUMPDEST PUSH1 0x0 PUSH1 0x1F NOT PUSH1 0x1F DUP4 ADD AND SWAP1 POP SWAP2 SWAP1 POP JUMP JUMPDEST PUSH3 0x67C DUP3 PUSH3 0x660 JUMP JUMPDEST DUP2 ADD DUP2 DUP2 LT PUSH8 0xFFFFFFFFFFFFFFFF DUP3 GT OR ISZERO PUSH3 0x69E JUMPI PUSH3 0x69D PUSH3 0x2EC JUMP JUMPDEST JUMPDEST DUP1 PUSH1 0x40 MSTORE POP POP POP JUMP JUMPDEST PUSH1 0x0 PUSH3 0x6B3 PUSH3 0x642 JUMP JUMPDEST SWAP1 POP PUSH3 0x6C1 DUP3 DUP3 PUSH3 0x671 JUMP JUMPDEST SWAP2 SWAP1 POP JUMP JUMPDEST PUSH1 0x0 PUSH8 0xFFFFFFFFFFFFFFFF DUP3 GT ISZERO PUSH3 0x6E4 JUMPI PUSH3 0x6E3 PUSH3 0x2EC JUMP JUMPDEST JUMPDEST PUSH3 0x6EF DUP3 PUSH3 0x660 JUMP JUMPDEST SWAP1 POP PUSH1 0x20 DUP2 ADD SWAP1 POP SWAP2 SWAP1 POP JUMP JUMPDEST PUSH1 0x0 JUMPDEST DUP4 DUP2 LT ISZERO PUSH3 0x71C JUMPI DUP1 DUP3 ADD MLOAD DUP2 DUP5 ADD MSTORE PUSH1 0x20 DUP2 ADD SWAP1 POP PUSH3 0x6FF JUMP JUMPDEST PUSH1 0x0 DUP5 DUP5 ADD MSTORE POP POP POP POP JUMP JUMPDEST PUSH1 0x0 PUSH3 0x73F PUSH3 0x739 DUP5 PUSH3 0x6C6 JUMP JUMPDEST PUSH3 0x6A7 JUMP JUMPDEST SWAP1 POP DUP3 DUP2 MSTORE PUSH1 0x20 DUP2 ADD DUP5 DUP5 DUP5 ADD GT ISZERO PUSH3 0x75E JUMPI PUSH3 0x75D PUSH3 0x65B JUMP JUMPDEST JUMPDEST PUSH3 0x76B DUP5 DUP3 DUP6 PUSH3 0x6FC JUMP JUMPDEST POP SWAP4 SWAP3 POP POP POP JUMP JUMPDEST PUSH1 0x0 DUP3 PUSH1 0x1F DUP4 ADD SLT PUSH3 0x78B JUMPI PUSH3 0x78A PUSH3 0x656 JUMP JUMPDEST JUMPDEST DUP2 MLOAD PUSH3 0x79D DUP5 DUP3 PUSH1 0x20 DUP7 ADD PUSH3 0x728 JUMP JUMPDEST SWAP2 POP POP SWAP3 SWAP2 POP POP JUMP JUMPDEST PUSH1 0x0 DUP1 PUSH1 0x40 DUP4 DUP6 SUB SLT ISZERO PUSH3 0x7C0 JUMPI PUSH3 0x7BF PUSH3 0x64C JUMP JUMPDEST JUMPDEST PUSH1 0x0 DUP4 ADD MLOAD PUSH8 0xFFFFFFFFFFFFFFFF DUP2 GT ISZERO PUSH3 0x7E1 JUMPI PUSH3 0x7E0 PUSH3 0x651 JUMP JUMPDEST JUMPDEST PUSH3 0x7EF DUP6 DUP3 DUP7 ADD PUSH3 0x773 JUMP JUMPDEST SWAP3 POP POP PUSH1 0x20 DUP4 ADD MLOAD PUSH8 0xFFFFFFFFFFFFFFFF DUP2 GT ISZERO PUSH3 0x813 JUMPI PUSH3 0x812 PUSH3 0x651 JUMP JUMPDEST JUMPDEST PUSH3 0x821 DUP6 DUP3 DUP7 ADD PUSH3 0x773 JUMP JUMPDEST SWAP2 POP POP SWAP3 POP SWAP3 SWAP1 POP JUMP JUMPDEST PUSH2 0x2765 DUP1 PUSH3 0x83B PUSH1 0x0 CODECOPY PUSH1 0x0 RETURN INVALID PUSH1 0x80 PUSH1 0x40 MSTORE CALLVALUE DUP1 ISZERO PUSH2 0x10 JUMPI PUSH1 0x0 DUP1 REVERT JUMPDEST POP PUSH1 0x4 CALLDATASIZE LT PUSH2 0xCF JUMPI PUSH1 0x0 CALLDATALOAD PUSH1 0xE0 SHR DUP1 PUSH4 0x62D6BBDF GT PUSH2 0x8C JUMPI DUP1 PUSH4 0xA9059CBB GT PUSH2 0x66 JUMPI DUP1 PUSH4 0xA9059CBB EQ PUSH2 0x24C JUMPI DUP1 PUSH4 0xB1B86B13 EQ PUSH2 0x27C JUMPI DUP1 PUSH4 0xDD62ED3E EQ PUSH2 0x298 JUMPI DUP1 PUSH4 0xE211CD6D EQ PUSH2 0x2C8 JUMPI PUSH2 0xCF JUMP JUMPDEST DUP1 PUSH4 0x62D6BBDF EQ PUSH2 0x1D0 JUMPI DUP1 PUSH4 0x70A08231 EQ PUSH2 0x1EC JUMPI DUP1 PUSH4 0x70CD5A80 EQ PUSH2 0x21C JUMPI PUSH2 0xCF JUMP JUMPDEST DUP1 PUSH4 0x95EA7B3 EQ PUSH2 0xD4 JUMPI DUP1 PUSH4 0x18160DDD EQ PUSH2 0x104 JUMPI DUP1 PUSH4 0x23B872DD EQ PUSH2 0x122 JUMPI DUP1 PUSH4 0x314563C4 EQ PUSH2 0x152 JUMPI DUP1 PUSH4 0x40C10F19 EQ PUSH2 0x170 JUMPI DUP1 PUSH4 0x42966C68 EQ PUSH2 0x1A0 JUMPI JUMPDEST PUSH1 0x0 DUP1 REVERT JUMPDEST PUSH2 0xEE PUSH1 0x4 DUP1 CALLDATASIZE SUB DUP2 ADD SWAP1 PUSH2 0xE9 SWAP2 SWAP1 PUSH2 0x17D0 JUMP JUMPDEST PUSH2 0x2F8 JUMP JUMPDEST PUSH1 0x40 MLOAD PUSH2 0xFB SWAP2 SWAP1 PUSH2 0x182B JUMP JUMPDEST PUSH1 0x40 MLOAD DUP1 SWAP2 SUB SWAP1 RETURN JUMPDEST PUSH2 0x10C PUSH2 0x556 JUMP JUMPDEST PUSH1 0x40 MLOAD PUSH2 0x119 SWAP2 SWAP1 PUSH2 0x1855 JUMP JUMPDEST PUSH1 0x40 MLOAD DUP1 SWAP2 SUB SWAP1 RETURN JUMPDEST PUSH2 0x13C PUSH1 0x4 DUP1 CALLDATASIZE SUB DUP2 ADD SWAP1 PUSH2 0x137 SWAP2 SWAP1 PUSH2 0x1870 JUMP JUMPDEST PUSH2 0x560 JUMP JUMPDEST PUSH1 0x40 MLOAD PUSH2 0x149 SWAP2 SWAP1 PUSH2 0x182B JUMP JUMPDEST PUSH1 0x40 MLOAD DUP1 SWAP2 SUB SWAP1 RETURN JUMPDEST PUSH2 0x15A PUSH2 0x7FE JUMP JUMPDEST PUSH1 0x40 MLOAD PUSH2 0x167 SWAP2 SWAP1 PUSH2 0x1953 JUMP JUMPDEST PUSH1 0x40 MLOAD DUP1 SWAP2 SUB SWAP1 RETURN JUMPDEST PUSH2 0x18A PUSH1 0x4 DUP1 CALLDATASIZE SUB DUP2 ADD SWAP1 PUSH2 0x185 SWAP2 SWAP1 PUSH2 0x17D0 JUMP JUMPDEST PUSH2 0x8F2 JUMP JUMPDEST PUSH1 0x40 MLOAD PUSH2 0x197 SWAP2 SWAP1 PUSH2 0x182B JUMP JUMPDEST PUSH1 0x40 MLOAD DUP1 SWAP2 SUB SWAP1 RETURN JUMPDEST PUSH2 0x1BA PUSH1 0x4 DUP1 CALLDATASIZE SUB DUP2 ADD SWAP1 PUSH2 0x1B5 SWAP2 SWAP1 PUSH2 0x1975 JUMP JUMPDEST PUSH2 0xA36 JUMP JUMPDEST PUSH1 0x40 MLOAD PUSH2 0x1C7 SWAP2 SWAP1 PUSH2 0x182B JUMP JUMPDEST PUSH1 0x40 MLOAD DUP1 SWAP2 SUB SWAP1 RETURN JUMPDEST PUSH2 0x1EA PUSH1 0x4 DUP1 CALLDATASIZE SUB DUP2 ADD SWAP1 PUSH2 0x1E5 SWAP2 SWAP1 PUSH2 0x1AD7 JUMP JUMPDEST PUSH2 0xBBB JUMP JUMPDEST STOP JUMPDEST PUSH2 0x206 PUSH1 0x4 DUP1 CALLDATASIZE SUB DUP2 ADD SWAP1 PUSH2 0x201 SWAP2 SWAP1 PUSH2 0x1B33 JUMP JUMPDEST PUSH2 0xCEA JUMP JUMPDEST PUSH1 0x40 MLOAD PUSH2 0x213 SWAP2 SWAP1 PUSH2 0x1855 JUMP JUMPDEST PUSH1 0x40 MLOAD DUP1 SWAP2 SUB SWAP1 RETURN JUMPDEST PUSH2 0x236 PUSH1 0x4 DUP1 CALLDATASIZE SUB DUP2 ADD SWAP1 PUSH2 0x231 SWAP2 SWAP1 PUSH2 0x1B33 JUMP JUMPDEST PUSH2 0xD33 JUMP JUMPDEST PUSH1 0x40 MLOAD PUSH2 0x243 SWAP2 SWAP1 PUSH2 0x1C6C JUMP JUMPDEST PUSH1 0x40 MLOAD DUP1 SWAP2 SUB SWAP1 RETURN JUMPDEST PUSH2 0x266 PUSH1 0x4 DUP1 CALLDATASIZE SUB DUP2 ADD SWAP1 PUSH2 0x261 SWAP2 SWAP1 PUSH2 0x17D0 JUMP JUMPDEST PUSH2 0xE4B JUMP JUMPDEST PUSH1 0x40 MLOAD PUSH2 0x273 SWAP2 SWAP1 PUSH2 0x182B JUMP JUMPDEST PUSH1 0x40 MLOAD DUP1 SWAP2 SUB SWAP1 RETURN JUMPDEST PUSH2 0x296 PUSH1 0x4 DUP1 CALLDATASIZE SUB DUP2 ADD SWAP1 PUSH2 0x291 SWAP2 SWAP1 PUSH2 0x1AD7 JUMP JUMPDEST PUSH2 0x10AC JUMP JUMPDEST STOP JUMPDEST PUSH2 0x2B2 PUSH1 0x4 DUP1 CALLDATASIZE SUB DUP2 ADD SWAP1 PUSH2 0x2AD SWAP2 SWAP1 PUSH2 0x1C8E JUMP JUMPDEST PUSH2 0x14B3 JUMP JUMPDEST PUSH1 0x40 MLOAD PUSH2 0x2BF SWAP2 SWAP1 PUSH2 0x1855 JUMP JUMPDEST PUSH1 0x40 MLOAD DUP1 SWAP2 SUB SWAP1 RETURN JUMPDEST PUSH2 0x2E2 PUSH1 0x4 DUP1 CALLDATASIZE SUB DUP2 ADD SWAP1 PUSH2 0x2DD SWAP2 SWAP1 PUSH2 0x1CCE JUMP JUMPDEST PUSH2 0x153A JUMP JUMPDEST PUSH1 0x40 MLOAD PUSH2 0x2EF SWAP2 SWAP1 PUSH2 0x1855 JUMP JUMPDEST PUSH1 0x40 MLOAD DUP1 SWAP2 SUB SWAP1 RETURN JUMPDEST PUSH1 0x0 DUP1 CALLER SWAP1 POP PUSH1 0x0 PUSH1 0x3 PUSH1 0x0 DUP4 PUSH20 0xFFFFFFFFFFFFFFFFFFFFFFFFFFFFFFFFFFFFFFFF AND PUSH20 0xFFFFFFFFFFFFFFFFFFFFFFFFFFFFFFFFFFFFFFFF AND DUP2 MSTORE PUSH1 0x20 ADD SWAP1 DUP2 MSTORE PUSH1 0x20 ADD PUSH1 0x0 KECCAK256 SLOAD SWAP1 POP PUSH1 0x0 PUSH20 0xFFFFFFFFFFFFFFFFFFFFFFFFFFFFFFFFFFFFFFFF AND DUP6 PUSH20 0xFFFFFFFFFFFFFFFFFFFFFFFFFFFFFFFFFFFFFFFF AND SUB PUSH2 0x3B3 JUMPI DUP5 PUSH1 0x40 MLOAD PUSH32 0x9CFEA58300000000000000000000000000000000000000000000000000000000 DUP2 MSTORE PUSH1 0x4 ADD PUSH2 0x3AA SWAP2 SWAP1 PUSH2 0x1D39 JUMP JUMPDEST PUSH1 0x40 MLOAD DUP1 SWAP2 SUB SWAP1 REVERT JUMPDEST DUP4 DUP2 LT ISZERO PUSH2 0x3FC JUMPI DUP2 DUP2 DUP6 PUSH1 0x40 MLOAD PUSH32 0xDB42144D00000000000000000000000000000000000000000000000000000000 DUP2 MSTORE PUSH1 0x4 ADD PUSH2 0x3F3 SWAP4 SWAP3 SWAP2 SWAP1 PUSH2 0x1D54 JUMP JUMPDEST PUSH1 0x40 MLOAD DUP1 SWAP2 SUB SWAP1 REVERT JUMPDEST DUP4 PUSH1 0x3 PUSH1 0x0 DUP5 PUSH20 0xFFFFFFFFFFFFFFFFFFFFFFFFFFFFFFFFFFFFFFFF AND PUSH20 0xFFFFFFFFFFFFFFFFFFFFFFFFFFFFFFFFFFFFFFFF AND DUP2 MSTORE PUSH1 0x20 ADD SWAP1 DUP2 MSTORE PUSH1 0x20 ADD PUSH1 0x0 KECCAK256 PUSH1 0x0 DUP3 DUP3 SLOAD PUSH2 0x44B SWAP2 SWAP1 PUSH2 0x1DBA JUMP JUMPDEST SWAP3 POP POP DUP2 SWAP1 SSTORE POP DUP4 PUSH1 0x7 PUSH1 0x0 DUP5 PUSH20 0xFFFFFFFFFFFFFFFFFFFFFFFFFFFFFFFFFFFFFFFF AND PUSH20 0xFFFFFFFFFFFFFFFFFFFFFFFFFFFFFFFFFFFFFFFF AND DUP2 MSTORE PUSH1 0x20 ADD SWAP1 DUP2 MSTORE PUSH1 0x20 ADD PUSH1 0x0 KECCAK256 PUSH1 0x0 DUP8 PUSH20 0xFFFFFFFFFFFFFFFFFFFFFFFFFFFFFFFFFFFFFFFF AND PUSH20 0xFFFFFFFFFFFFFFFFFFFFFFFFFFFFFFFFFFFFFFFF AND DUP2 MSTORE PUSH1 0x20 ADD SWAP1 DUP2 MSTORE PUSH1 0x20 ADD PUSH1 0x0 KECCAK256 PUSH1 0x0 DUP3 DUP3 SLOAD PUSH2 0x4DE SWAP2 SWAP1 PUSH2 0x1DEE JUMP JUMPDEST SWAP3 POP POP DUP2 SWAP1 SSTORE POP DUP5 PUSH20 0xFFFFFFFFFFFFFFFFFFFFFFFFFFFFFFFFFFFFFFFF AND DUP3 PUSH20 0xFFFFFFFFFFFFFFFFFFFFFFFFFFFFFFFFFFFFFFFF AND PUSH32 0x8C5BE1E5EBEC7D5BD14F71427D1E84F3DD0314C0F7B2291E5B200AC8C7C3B925 DUP7 PUSH1 0x40 MLOAD PUSH2 0x542 SWAP2 SWAP1 PUSH2 0x1855 JUMP JUMPDEST PUSH1 0x40 MLOAD DUP1 SWAP2 SUB SWAP1 LOG3 PUSH1 0x1 SWAP3 POP POP POP SWAP3 SWAP2 POP POP JUMP JUMPDEST PUSH1 0x0 PUSH1 0x6 SLOAD SWAP1 POP SWAP1 JUMP JUMPDEST PUSH1 0x0 DUP1 CALLER SWAP1 POP PUSH1 0x0 PUSH1 0x7 PUSH1 0x0 DUP8 PUSH20 0xFFFFFFFFFFFFFFFFFFFFFFFFFFFFFFFFFFFFFFFF AND PUSH20 0xFFFFFFFFFFFFFFFFFFFFFFFFFFFFFFFFFFFFFFFF AND DUP2 MSTORE PUSH1 0x20 ADD SWAP1 DUP2 MSTORE PUSH1 0x20 ADD PUSH1 0x0 KECCAK256 PUSH1 0x0 DUP4 PUSH20 0xFFFFFFFFFFFFFFFFFFFFFFFFFFFFFFFFFFFFFFFF AND PUSH20 0xFFFFFFFFFFFFFFFFFFFFFFFFFFFFFFFFFFFFFFFF AND DUP2 MSTORE PUSH1 0x20 ADD SWAP1 DUP2 MSTORE PUSH1 0x20 ADD PUSH1 0x0 KECCAK256 SLOAD SWAP1 POP PUSH1 0x0 PUSH20 0xFFFFFFFFFFFFFFFFFFFFFFFFFFFFFFFFFFFFFFFF AND DUP6 PUSH20 0xFFFFFFFFFFFFFFFFFFFFFFFFFFFFFFFFFFFFFFFF AND SUB PUSH2 0x658 JUMPI DUP5 PUSH1 0x40 MLOAD PUSH32 0x9CFEA58300000000000000000000000000000000000000000000000000000000 DUP2 MSTORE PUSH1 0x4 ADD PUSH2 0x64F SWAP2 SWAP1 PUSH2 0x1D39 JUMP JUMPDEST PUSH1 0x40 MLOAD DUP1 SWAP2 SUB SWAP1 REVERT JUMPDEST DUP4 DUP2 LT ISZERO PUSH2 0x6A3 JUMPI DUP2 DUP7 DUP3 DUP7 PUSH1 0x40 MLOAD PUSH32 0x91BEDA2400000000000000000000000000000000000000000000000000000000 DUP2 MSTORE PUSH1 0x4 ADD PUSH2 0x69A SWAP5 SWAP4 SWAP3 SWAP2 SWAP1 PUSH2 0x1E22 JUMP JUMPDEST PUSH1 0x40 MLOAD DUP1 SWAP2 SUB SWAP1 REVERT JUMPDEST DUP4 PUSH1 0x7 PUSH1 0x0 DUP9 PUSH20 0xFFFFFFFFFFFFFFFFFFFFFFFFFFFFFFFFFFFFFFFF AND PUSH20 0xFFFFFFFFFFFFFFFFFFFFFFFFFFFFFFFFFFFFFFFF AND DUP2 MSTORE PUSH1 0x20 ADD SWAP1 DUP2 MSTORE PUSH1 0x20 ADD PUSH1 0x0 KECCAK256 PUSH1 0x0 DUP5 PUSH20 0xFFFFFFFFFFFFFFFFFFFFFFFFFFFFFFFFFFFFFFFF AND PUSH20 0xFFFFFFFFFFFFFFFFFFFFFFFFFFFFFFFFFFFFFFFF AND DUP2 MSTORE PUSH1 0x20 ADD SWAP1 DUP2 MSTORE PUSH1 0x20 ADD PUSH1 0x0 KECCAK256 PUSH1 0x0 DUP3 DUP3 SLOAD PUSH2 0x72F SWAP2 SWAP1 PUSH2 0x1DBA JUMP JUMPDEST SWAP3 POP POP DUP2 SWAP1 SSTORE POP DUP4 PUSH1 0x3 PUSH1 0x0 DUP8 PUSH20 0xFFFFFFFFFFFFFFFFFFFFFFFFFFFFFFFFFFFFFFFF AND PUSH20 0xFFFFFFFFFFFFFFFFFFFFFFFFFFFFFFFFFFFFFFFF AND DUP2 MSTORE PUSH1 0x20 ADD SWAP1 DUP2 MSTORE PUSH1 0x20 ADD PUSH1 0x0 KECCAK256 PUSH1 0x0 DUP3 DUP3 SLOAD PUSH2 0x785 SWAP2 SWAP1 PUSH2 0x1DEE JUMP JUMPDEST SWAP3 POP POP DUP2 SWAP1 SSTORE POP DUP5 PUSH20 0xFFFFFFFFFFFFFFFFFFFFFFFFFFFFFFFFFFFFFFFF AND DUP7 PUSH20 0xFFFFFFFFFFFFFFFFFFFFFFFFFFFFFFFFFFFFFFFF AND PUSH32 0xDDF252AD1BE2C89B69C2B068FC378DAA952BA7F163C4A11628F55A4DF523B3EF DUP7 PUSH1 0x40 MLOAD PUSH2 0x7E9 SWAP2 SWAP1 PUSH2 0x1855 JUMP JUMPDEST PUSH1 0x40 MLOAD DUP1 SWAP2 SUB SWAP1 LOG3 PUSH1 0x1 SWAP3 POP POP POP SWAP4 SWAP3 POP POP POP JUMP JUMPDEST PUSH1 0x60 PUSH1 0x0 PUSH1 0x40 MLOAD DUP1 PUSH1 0x20 ADD PUSH1 0x40 MSTORE DUP1 PUSH1 0x0 DUP2 MSTORE POP SWAP1 POP PUSH1 0x0 JUMPDEST PUSH1 0x8 DUP1 SLOAD SWAP1 POP DUP2 LT ISZERO PUSH2 0x8EA JUMPI DUP2 PUSH1 0x8 DUP3 DUP2 SLOAD DUP2 LT PUSH2 0x839 JUMPI PUSH2 0x838 PUSH2 0x1E67 JUMP JUMPDEST JUMPDEST SWAP1 PUSH1 0x0 MSTORE PUSH1 0x20 PUSH1 0x0 KECCAK256 SWAP1 PUSH1 0x2 MUL ADD PUSH1 0x0 ADD PUSH2 0x878 PUSH1 0x8 DUP5 DUP2 SLOAD DUP2 LT PUSH2 0x861 JUMPI PUSH2 0x860 PUSH2 0x1E67 JUMP JUMPDEST JUMPDEST SWAP1 PUSH1 0x0 MSTORE PUSH1 0x20 PUSH1 0x0 KECCAK256 SWAP1 PUSH1 0x2 MUL ADD PUSH1 0x1 ADD SLOAD PUSH2 0x15A0 JUMP JUMPDEST PUSH1 0x40 MLOAD PUSH1 0x20 ADD PUSH2 0x88A SWAP4 SWAP3 SWAP2 SWAP1 PUSH2 0x2062 JUMP JUMPDEST PUSH1 0x40 MLOAD PUSH1 0x20 DUP2 DUP4 SUB SUB DUP2 MSTORE SWAP1 PUSH1 0x40 MSTORE SWAP2 POP PUSH1 0x1 PUSH1 0x8 DUP1 SLOAD SWAP1 POP PUSH2 0x8AD SWAP2 SWAP1 PUSH2 0x1DBA JUMP JUMPDEST DUP2 LT ISZERO PUSH2 0x8D7 JUMPI DUP2 PUSH1 0x40 MLOAD PUSH1 0x20 ADD PUSH2 0x8C5 SWAP2 SWAP1 PUSH2 0x20F5 JUMP JUMPDEST PUSH1 0x40 MLOAD PUSH1 0x20 DUP2 DUP4 SUB SUB DUP2 MSTORE SWAP1 PUSH1 0x40 MSTORE SWAP2 POP JUMPDEST DUP1 DUP1 PUSH2 0x8E2 SWAP1 PUSH2 0x2117 JUMP JUMPDEST SWAP2 POP POP PUSH2 0x817 JUMP JUMPDEST POP DUP1 SWAP2 POP POP SWAP1 JUMP JUMPDEST PUSH1 0x0 PUSH1 0x2 PUSH1 0x0 SWAP1 SLOAD SWAP1 PUSH2 0x100 EXP SWAP1 DIV PUSH20 0xFFFFFFFFFFFFFFFFFFFFFFFFFFFFFFFFFFFFFFFF AND PUSH20 0xFFFFFFFFFFFFFFFFFFFFFFFFFFFFFFFFFFFFFFFF AND CALLER PUSH20 0xFFFFFFFFFFFFFFFFFFFFFFFFFFFFFFFFFFFFFFFF AND EQ PUSH2 0x984 JUMPI PUSH1 0x40 MLOAD PUSH32 0x8C379A000000000000000000000000000000000000000000000000000000000 DUP2 MSTORE PUSH1 0x4 ADD PUSH2 0x97B SWAP1 PUSH2 0x21D1 JUMP JUMPDEST PUSH1 0x40 MLOAD DUP1 SWAP2 SUB SWAP1 REVERT JUMPDEST DUP2 PUSH1 0x3 PUSH1 0x0 DUP6 PUSH20 0xFFFFFFFFFFFFFFFFFFFFFFFFFFFFFFFFFFFFFFFF AND PUSH20 0xFFFFFFFFFFFFFFFFFFFFFFFFFFFFFFFFFFFFFFFF AND DUP2 MSTORE PUSH1 0x20 ADD SWAP1 DUP2 MSTORE PUSH1 0x20 ADD PUSH1 0x0 KECCAK256 PUSH1 0x0 DUP3 DUP3 SLOAD PUSH2 0x9D3 SWAP2 SWAP1 PUSH2 0x1DEE JUMP JUMPDEST SWAP3 POP POP DUP2 SWAP1 SSTORE POP DUP2 PUSH1 0x6 PUSH1 0x0 DUP3 DUP3 SLOAD PUSH2 0x9EC SWAP2 SWAP1 PUSH2 0x1DEE JUMP JUMPDEST SWAP3 POP POP DUP2 SWAP1 SSTORE POP PUSH32 0xF6798A560793A54C3BCFE86A93CDE1E73087D944C0EA20544137D4121396885 DUP4 DUP4 PUSH1 0x40 MLOAD PUSH2 0xA24 SWAP3 SWAP2 SWAP1 PUSH2 0x21F1 JUMP JUMPDEST PUSH1 0x40 MLOAD DUP1 SWAP2 SUB SWAP1 LOG1 PUSH1 0x1 SWAP1 POP SWAP3 SWAP2 POP POP JUMP JUMPDEST PUSH1 0x0 DUP1 CALLER SWAP1 POP PUSH1 0x0 PUSH1 0x3 PUSH1 0x0 DUP4 PUSH20 0xFFFFFFFFFFFFFFFFFFFFFFFFFFFFFFFFFFFFFFFF AND PUSH20 0xFFFFFFFFFFFFFFFFFFFFFFFFFFFFFFFFFFFFFFFF AND DUP2 MSTORE PUSH1 0x20 ADD SWAP1 DUP2 MSTORE PUSH1 0x20 ADD PUSH1 0x0 KECCAK256 SLOAD SWAP1 POP DUP4 PUSH1 0x3 PUSH1 0x0 DUP5 PUSH20 0xFFFFFFFFFFFFFFFFFFFFFFFFFFFFFFFFFFFFFFFF AND PUSH20 0xFFFFFFFFFFFFFFFFFFFFFFFFFFFFFFFFFFFFFFFF AND DUP2 MSTORE PUSH1 0x20 ADD SWAP1 DUP2 MSTORE PUSH1 0x20 ADD PUSH1 0x0 KECCAK256 SLOAD LT ISZERO PUSH2 0xB08 JUMPI DUP2 DUP2 DUP6 PUSH1 0x40 MLOAD PUSH32 0xDB42144D00000000000000000000000000000000000000000000000000000000 DUP2 MSTORE PUSH1 0x4 ADD PUSH2 0xAFF SWAP4 SWAP3 SWAP2 SWAP1 PUSH2 0x1D54 JUMP JUMPDEST PUSH1 0x40 MLOAD DUP1 SWAP2 SUB SWAP1 REVERT JUMPDEST DUP4 PUSH1 0x3 PUSH1 0x0 DUP5 PUSH20 0xFFFFFFFFFFFFFFFFFFFFFFFFFFFFFFFFFFFFFFFF AND PUSH20 0xFFFFFFFFFFFFFFFFFFFFFFFFFFFFFFFFFFFFFFFF AND DUP2 MSTORE PUSH1 0x20 ADD SWAP1 DUP2 MSTORE PUSH1 0x20 ADD PUSH1 0x0 KECCAK256 PUSH1 0x0 DUP3 DUP3 SLOAD PUSH2 0xB57 SWAP2 SWAP1 PUSH2 0x1DBA JUMP JUMPDEST SWAP3 POP POP DUP2 SWAP1 SSTORE POP DUP4 PUSH1 0x6 PUSH1 0x0 DUP3 DUP3 SLOAD PUSH2 0xB70 SWAP2 SWAP1 PUSH2 0x1DBA JUMP JUMPDEST SWAP3 POP POP DUP2 SWAP1 SSTORE POP PUSH32 0xCC16F5DBB4873280815C1EE09DBD06736CFFCC184412CF7A71A0FDB75D397CA5 DUP3 DUP6 PUSH1 0x40 MLOAD PUSH2 0xBA8 SWAP3 SWAP2 SWAP1 PUSH2 0x21F1 JUMP JUMPDEST PUSH1 0x40 MLOAD DUP1 SWAP2 SUB SWAP1 LOG1 PUSH1 0x1 SWAP3 POP POP POP SWAP2 SWAP1 POP JUMP JUMPDEST PUSH1 0x2 PUSH1 0x0 SWAP1 SLOAD SWAP1 PUSH2 0x100 EXP SWAP1 DIV PUSH20 0xFFFFFFFFFFFFFFFFFFFFFFFFFFFFFFFFFFFFFFFF AND PUSH20 0xFFFFFFFFFFFFFFFFFFFFFFFFFFFFFFFFFFFFFFFF AND CALLER PUSH20 0xFFFFFFFFFFFFFFFFFFFFFFFFFFFFFFFFFFFFFFFF AND EQ PUSH2 0xC4B JUMPI PUSH1 0x40 MLOAD PUSH32 0x8C379A000000000000000000000000000000000000000000000000000000000 DUP2 MSTORE PUSH1 0x4 ADD PUSH2 0xC42 SWAP1 PUSH2 0x228C JUMP JUMPDEST PUSH1 0x40 MLOAD DUP1 SWAP2 SUB SWAP1 REVERT JUMPDEST PUSH1 0x8 PUSH1 0x40 MLOAD DUP1 PUSH1 0x40 ADD PUSH1 0x40 MSTORE DUP1 DUP5 DUP2 MSTORE PUSH1 0x20 ADD DUP4 DUP2 MSTORE POP SWAP1 DUP1 PUSH1 0x1 DUP2 SLOAD ADD DUP1 DUP3 SSTORE DUP1 SWAP2 POP POP PUSH1 0x1 SWAP1 SUB SWAP1 PUSH1 0x0 MSTORE PUSH1 0x20 PUSH1 0x0 KECCAK256 SWAP1 PUSH1 0x2 MUL ADD PUSH1 0x0 SWAP1 SWAP2 SWAP1 SWAP2 SWAP1 SWAP2 POP PUSH1 0x0 DUP3 ADD MLOAD DUP2 PUSH1 0x0 ADD SWAP1 DUP2 PUSH2 0xCA0 SWAP2 SWAP1 PUSH2 0x2443 JUMP JUMPDEST POP PUSH1 0x20 DUP3 ADD MLOAD DUP2 PUSH1 0x1 ADD SSTORE POP POP PUSH32 0xE4CEE8B4B346E9FC68B7E9892799BBD7758269373BCF9DA8BCB20E89ADE95C1D DUP3 DUP3 PUSH1 0x40 MLOAD PUSH2 0xCDE SWAP3 SWAP2 SWAP1 PUSH2 0x2515 JUMP JUMPDEST PUSH1 0x40 MLOAD DUP1 SWAP2 SUB SWAP1 LOG1 POP POP JUMP JUMPDEST PUSH1 0x0 PUSH1 0x3 PUSH1 0x0 DUP4 PUSH20 0xFFFFFFFFFFFFFFFFFFFFFFFFFFFFFFFFFFFFFFFF AND PUSH20 0xFFFFFFFFFFFFFFFFFFFFFFFFFFFFFFFFFFFFFFFF AND DUP2 MSTORE PUSH1 0x20 ADD SWAP1 DUP2 MSTORE PUSH1 0x20 ADD PUSH1 0x0 KECCAK256 SLOAD SWAP1 POP SWAP2 SWAP1 POP JUMP JUMPDEST PUSH1 0x60 PUSH1 0x4 PUSH1 0x0 DUP4 PUSH20 0xFFFFFFFFFFFFFFFFFFFFFFFFFFFFFFFFFFFFFFFF AND PUSH20 0xFFFFFFFFFFFFFFFFFFFFFFFFFFFFFFFFFFFFFFFF AND DUP2 MSTORE PUSH1 0x20 ADD SWAP1 DUP2 MSTORE PUSH1 0x20 ADD PUSH1 0x0 KECCAK256 DUP1 SLOAD DUP1 PUSH1 0x20 MUL PUSH1 0x20 ADD PUSH1 0x40 MLOAD SWAP1 DUP2 ADD PUSH1 0x40 MSTORE DUP1 SWAP3 SWAP2 SWAP1 DUP2 DUP2 MSTORE PUSH1 0x20 ADD PUSH1 0x0 SWAP1 JUMPDEST DUP3 DUP3 LT ISZERO PUSH2 0xE40 JUMPI DUP4 DUP3 SWAP1 PUSH1 0x0 MSTORE PUSH1 0x20 PUSH1 0x0 KECCAK256 ADD DUP1 SLOAD PUSH2 0xDB3 SWAP1 PUSH2 0x1F01 JUMP JUMPDEST DUP1 PUSH1 0x1F ADD PUSH1 0x20 DUP1 SWAP2 DIV MUL PUSH1 0x20 ADD PUSH1 0x40 MLOAD SWAP1 DUP2 ADD PUSH1 0x40 MSTORE DUP1 SWAP3 SWAP2 SWAP1 DUP2 DUP2 MSTORE PUSH1 0x20 ADD DUP3 DUP1 SLOAD PUSH2 0xDDF SWAP1 PUSH2 0x1F01 JUMP JUMPDEST DUP1 ISZERO PUSH2 0xE2C JUMPI DUP1 PUSH1 0x1F LT PUSH2 0xE01 JUMPI PUSH2 0x100 DUP1 DUP4 SLOAD DIV MUL DUP4 MSTORE SWAP2 PUSH1 0x20 ADD SWAP2 PUSH2 0xE2C JUMP JUMPDEST DUP3 ADD SWAP2 SWAP1 PUSH1 0x0 MSTORE PUSH1 0x20 PUSH1 0x0 KECCAK256 SWAP1 JUMPDEST DUP2 SLOAD DUP2 MSTORE SWAP1 PUSH1 0x1 ADD SWAP1 PUSH1 0x20 ADD DUP1 DUP4 GT PUSH2 0xE0F JUMPI DUP3 SWAP1 SUB PUSH1 0x1F AND DUP3 ADD SWAP2 JUMPDEST POP POP POP POP POP DUP2 MSTORE PUSH1 0x20 ADD SWAP1 PUSH1 0x1 ADD SWAP1 PUSH2 0xD94 JUMP JUMPDEST POP POP POP POP SWAP1 POP SWAP2 SWAP1 POP JUMP JUMPDEST PUSH1 0x0 DUP1 PUSH20 0xFFFFFFFFFFFFFFFFFFFFFFFFFFFFFFFFFFFFFFFF AND DUP4 PUSH20 0xFFFFFFFFFFFFFFFFFFFFFFFFFFFFFFFFFFFFFFFF AND SUB PUSH2 0xEBE JUMPI PUSH1 0x0 PUSH1 0x40 MLOAD PUSH32 0x9CFEA58300000000000000000000000000000000000000000000000000000000 DUP2 MSTORE PUSH1 0x4 ADD PUSH2 0xEB5 SWAP2 SWAP1 PUSH2 0x1D39 JUMP JUMPDEST PUSH1 0x40 MLOAD DUP1 SWAP2 SUB SWAP1 REVERT JUMPDEST PUSH1 0x0 CALLER SWAP1 POP PUSH1 0x0 PUSH1 0x3 PUSH1 0x0 DUP4 PUSH20 0xFFFFFFFFFFFFFFFFFFFFFFFFFFFFFFFFFFFFFFFF AND PUSH20 0xFFFFFFFFFFFFFFFFFFFFFFFFFFFFFFFFFFFFFFFF AND DUP2 MSTORE PUSH1 0x20 ADD SWAP1 DUP2 MSTORE PUSH1 0x20 ADD PUSH1 0x0 KECCAK256 SLOAD SWAP1 POP DUP4 PUSH1 0x3 PUSH1 0x0 DUP5 PUSH20 0xFFFFFFFFFFFFFFFFFFFFFFFFFFFFFFFFFFFFFFFF AND PUSH20 0xFFFFFFFFFFFFFFFFFFFFFFFFFFFFFFFFFFFFFFFF AND DUP2 MSTORE PUSH1 0x20 ADD SWAP1 DUP2 MSTORE PUSH1 0x20 ADD PUSH1 0x0 KECCAK256 SLOAD LT ISZERO PUSH2 0xF8F JUMPI DUP2 DUP2 DUP6 PUSH1 0x40 MLOAD PUSH32 0xDB42144D00000000000000000000000000000000000000000000000000000000 DUP2 MSTORE PUSH1 0x4 ADD PUSH2 0xF86 SWAP4 SWAP3 SWAP2 SWAP1 PUSH2 0x1D54 JUMP JUMPDEST PUSH1 0x40 MLOAD DUP1 SWAP2 SUB SWAP1 REVERT JUMPDEST DUP4 PUSH1 0x3 PUSH1 0x0 DUP5 PUSH20 0xFFFFFFFFFFFFFFFFFFFFFFFFFFFFFFFFFFFFFFFF AND PUSH20 0xFFFFFFFFFFFFFFFFFFFFFFFFFFFFFFFFFFFFFFFF AND DUP2 MSTORE PUSH1 0x20 ADD SWAP1 DUP2 MSTORE PUSH1 0x20 ADD PUSH1 0x0 KECCAK256 PUSH1 0x0 DUP3 DUP3 SLOAD PUSH2 0xFDE SWAP2 SWAP1 PUSH2 0x1DBA JUMP JUMPDEST SWAP3 POP POP DUP2 SWAP1 SSTORE POP DUP4 PUSH1 0x3 PUSH1 0x0 DUP8 PUSH20 0xFFFFFFFFFFFFFFFFFFFFFFFFFFFFFFFFFFFFFFFF AND PUSH20 0xFFFFFFFFFFFFFFFFFFFFFFFFFFFFFFFFFFFFFFFF AND DUP2 MSTORE PUSH1 0x20 ADD SWAP1 DUP2 MSTORE PUSH1 0x20 ADD PUSH1 0x0 KECCAK256 PUSH1 0x0 DUP3 DUP3 SLOAD PUSH2 0x1034 SWAP2 SWAP1 PUSH2 0x1DEE JUMP JUMPDEST SWAP3 POP POP DUP2 SWAP1 SSTORE POP DUP5 PUSH20 0xFFFFFFFFFFFFFFFFFFFFFFFFFFFFFFFFFFFFFFFF AND DUP3 PUSH20 0xFFFFFFFFFFFFFFFFFFFFFFFFFFFFFFFFFFFFFFFF AND PUSH32 0xDDF252AD1BE2C89B69C2B068FC378DAA952BA7F163C4A11628F55A4DF523B3EF DUP7 PUSH1 0x40 MLOAD PUSH2 0x1098 SWAP2 SWAP1 PUSH2 0x1855 JUMP JUMPDEST PUSH1 0x40 MLOAD DUP1 SWAP2 SUB SWAP1 LOG3 PUSH1 0x1 SWAP3 POP POP POP SWAP3 SWAP2 POP POP JUMP JUMPDEST PUSH1 0x0 CALLER SWAP1 POP PUSH1 0x0 PUSH1 0x3 PUSH1 0x0 DUP4 PUSH20 0xFFFFFFFFFFFFFFFFFFFFFFFFFFFFFFFFFFFFFFFF AND PUSH20 0xFFFFFFFFFFFFFFFFFFFFFFFFFFFFFFFFFFFFFFFF AND DUP2 MSTORE PUSH1 0x20 ADD SWAP1 DUP2 MSTORE PUSH1 0x20 ADD PUSH1 0x0 KECCAK256 SLOAD SWAP1 POP DUP3 PUSH1 0x3 PUSH1 0x0 DUP5 PUSH20 0xFFFFFFFFFFFFFFFFFFFFFFFFFFFFFFFFFFFFFFFF AND PUSH20 0xFFFFFFFFFFFFFFFFFFFFFFFFFFFFFFFFFFFFFFFF AND DUP2 MSTORE PUSH1 0x20 ADD SWAP1 DUP2 MSTORE PUSH1 0x20 ADD PUSH1 0x0 KECCAK256 SLOAD LT ISZERO PUSH2 0x117D JUMPI DUP2 DUP2 DUP5 PUSH1 0x40 MLOAD PUSH32 0xDB42144D00000000000000000000000000000000000000000000000000000000 DUP2 MSTORE PUSH1 0x4 ADD PUSH2 0x1174 SWAP4 SWAP3 SWAP2 SWAP1 PUSH2 0x1D54 JUMP JUMPDEST PUSH1 0x40 MLOAD DUP1 SWAP2 SUB SWAP1 REVERT JUMPDEST PUSH1 0x0 DUP1 PUSH1 0x0 SWAP1 POP PUSH1 0x0 JUMPDEST PUSH1 0x8 DUP1 SLOAD SWAP1 POP DUP2 LT ISZERO PUSH2 0x124F JUMPI DUP7 PUSH1 0x40 MLOAD PUSH1 0x20 ADD PUSH2 0x11A5 SWAP2 SWAP1 PUSH2 0x2545 JUMP JUMPDEST PUSH1 0x40 MLOAD PUSH1 0x20 DUP2 DUP4 SUB SUB DUP2 MSTORE SWAP1 PUSH1 0x40 MSTORE DUP1 MLOAD SWAP1 PUSH1 0x20 ADD KECCAK256 PUSH1 0x8 DUP3 DUP2 SLOAD DUP2 LT PUSH2 0x11CF JUMPI PUSH2 0x11CE PUSH2 0x1E67 JUMP JUMPDEST JUMPDEST SWAP1 PUSH1 0x0 MSTORE PUSH1 0x20 PUSH1 0x0 KECCAK256 SWAP1 PUSH1 0x2 MUL ADD PUSH1 0x0 ADD PUSH1 0x40 MLOAD PUSH1 0x20 ADD PUSH2 0x11F0 SWAP2 SWAP1 PUSH2 0x255C JUMP JUMPDEST PUSH1 0x40 MLOAD PUSH1 0x20 DUP2 DUP4 SUB SUB DUP2 MSTORE SWAP1 PUSH1 0x40 MSTORE DUP1 MLOAD SWAP1 PUSH1 0x20 ADD KECCAK256 SUB PUSH2 0x123C JUMPI PUSH1 0x8 DUP2 DUP2 SLOAD DUP2 LT PUSH2 0x121F JUMPI PUSH2 0x121E PUSH2 0x1E67 JUMP JUMPDEST JUMPDEST SWAP1 PUSH1 0x0 MSTORE PUSH1 0x20 PUSH1 0x0 KECCAK256 SWAP1 PUSH1 0x2 MUL ADD PUSH1 0x1 ADD SLOAD SWAP3 POP PUSH1 0x1 SWAP2 POP PUSH2 0x124F JUMP JUMPDEST DUP1 DUP1 PUSH2 0x1247 SWAP1 PUSH2 0x2117 JUMP JUMPDEST SWAP2 POP POP PUSH2 0x1187 JUMP JUMPDEST POP DUP1 PUSH2 0x1290 JUMPI PUSH1 0x40 MLOAD PUSH32 0x8C379A000000000000000000000000000000000000000000000000000000000 DUP2 MSTORE PUSH1 0x4 ADD PUSH2 0x1287 SWAP1 PUSH2 0x25BF JUMP JUMPDEST PUSH1 0x40 MLOAD DUP1 SWAP2 SUB SWAP1 REVERT JUMPDEST DUP2 DUP6 EQ PUSH2 0x12D2 JUMPI PUSH1 0x40 MLOAD PUSH32 0x8C379A000000000000000000000000000000000000000000000000000000000 DUP2 MSTORE PUSH1 0x4 ADD PUSH2 0x12C9 SWAP1 PUSH2 0x262B JUMP JUMPDEST PUSH1 0x40 MLOAD DUP1 SWAP2 SUB SWAP1 REVERT JUMPDEST DUP5 PUSH1 0x3 PUSH1 0x0 DUP7 PUSH20 0xFFFFFFFFFFFFFFFFFFFFFFFFFFFFFFFFFFFFFFFF AND PUSH20 0xFFFFFFFFFFFFFFFFFFFFFFFFFFFFFFFFFFFFFFFF AND DUP2 MSTORE PUSH1 0x20 ADD SWAP1 DUP2 MSTORE PUSH1 0x20 ADD PUSH1 0x0 KECCAK256 PUSH1 0x0 DUP3 DUP3 SLOAD PUSH2 0x1321 SWAP2 SWAP1 PUSH2 0x1DBA JUMP JUMPDEST SWAP3 POP POP DUP2 SWAP1 SSTORE POP PUSH1 0x4 PUSH1 0x0 DUP6 PUSH20 0xFFFFFFFFFFFFFFFFFFFFFFFFFFFFFFFFFFFFFFFF AND PUSH20 0xFFFFFFFFFFFFFFFFFFFFFFFFFFFFFFFFFFFFFFFF AND DUP2 MSTORE PUSH1 0x20 ADD SWAP1 DUP2 MSTORE PUSH1 0x20 ADD PUSH1 0x0 KECCAK256 DUP7 SWAP1 DUP1 PUSH1 0x1 DUP2 SLOAD ADD DUP1 DUP3 SSTORE DUP1 SWAP2 POP POP PUSH1 0x1 SWAP1 SUB SWAP1 PUSH1 0x0 MSTORE PUSH1 0x20 PUSH1 0x0 KECCAK256 ADD PUSH1 0x0 SWAP1 SWAP2 SWAP1 SWAP2 SWAP1 SWAP2 POP SWAP1 DUP2 PUSH2 0x1399 SWAP2 SWAP1 PUSH2 0x2443 JUMP JUMPDEST POP PUSH1 0x1 PUSH1 0x5 PUSH1 0x0 DUP7 PUSH20 0xFFFFFFFFFFFFFFFFFFFFFFFFFFFFFFFFFFFFFFFF AND PUSH20 0xFFFFFFFFFFFFFFFFFFFFFFFFFFFFFFFFFFFFFFFF AND DUP2 MSTORE PUSH1 0x20 ADD SWAP1 DUP2 MSTORE PUSH1 0x20 ADD PUSH1 0x0 KECCAK256 DUP8 PUSH1 0x40 MLOAD PUSH2 0x13E9 SWAP2 SWAP1 PUSH2 0x2545 JUMP JUMPDEST SWAP1 DUP2 MSTORE PUSH1 0x20 ADD PUSH1 0x40 MLOAD DUP1 SWAP2 SUB SWAP1 KECCAK256 PUSH1 0x0 DUP3 DUP3 SLOAD PUSH2 0x1406 SWAP2 SWAP1 PUSH2 0x1DEE JUMP JUMPDEST SWAP3 POP POP DUP2 SWAP1 SSTORE POP ADDRESS PUSH20 0xFFFFFFFFFFFFFFFFFFFFFFFFFFFFFFFFFFFFFFFF AND DUP5 PUSH20 0xFFFFFFFFFFFFFFFFFFFFFFFFFFFFFFFFFFFFFFFF AND PUSH32 0xDDF252AD1BE2C89B69C2B068FC378DAA952BA7F163C4A11628F55A4DF523B3EF DUP8 PUSH1 0x40 MLOAD PUSH2 0x146A SWAP2 SWAP1 PUSH2 0x1855 JUMP JUMPDEST PUSH1 0x40 MLOAD DUP1 SWAP2 SUB SWAP1 LOG3 PUSH32 0xCC16F5DBB4873280815C1EE09DBD06736CFFCC184412CF7A71A0FDB75D397CA5 DUP5 DUP7 PUSH1 0x40 MLOAD PUSH2 0x14A3 SWAP3 SWAP2 SWAP1 PUSH2 0x21F1 JUMP JUMPDEST PUSH1 0x40 MLOAD DUP1 SWAP2 SUB SWAP1 LOG1 POP POP POP POP POP POP JUMP JUMPDEST PUSH1 0x0 PUSH1 0x7 PUSH1 0x0 DUP5 PUSH20 0xFFFFFFFFFFFFFFFFFFFFFFFFFFFFFFFFFFFFFFFF AND PUSH20 0xFFFFFFFFFFFFFFFFFFFFFFFFFFFFFFFFFFFFFFFF AND DUP2 MSTORE PUSH1 0x20 ADD SWAP1 DUP2 MSTORE PUSH1 0x20 ADD PUSH1 0x0 KECCAK256 PUSH1 0x0 DUP4 PUSH20 0xFFFFFFFFFFFFFFFFFFFFFFFFFFFFFFFFFFFFFFFF AND PUSH20 0xFFFFFFFFFFFFFFFFFFFFFFFFFFFFFFFFFFFFFFFF AND DUP2 MSTORE PUSH1 0x20 ADD SWAP1 DUP2 MSTORE PUSH1 0x20 ADD PUSH1 0x0 KECCAK256 SLOAD SWAP1 POP SWAP3 SWAP2 POP POP JUMP JUMPDEST PUSH1 0x0 PUSH1 0x5 PUSH1 0x0 DUP5 PUSH20 0xFFFFFFFFFFFFFFFFFFFFFFFFFFFFFFFFFFFFFFFF AND PUSH20 0xFFFFFFFFFFFFFFFFFFFFFFFFFFFFFFFFFFFFFFFF AND DUP2 MSTORE PUSH1 0x20 ADD SWAP1 DUP2 MSTORE PUSH1 0x20 ADD PUSH1 0x0 KECCAK256 DUP3 PUSH1 0x40 MLOAD PUSH2 0x1589 SWAP2 SWAP1 PUSH2 0x2545 JUMP JUMPDEST SWAP1 DUP2 MSTORE PUSH1 0x20 ADD PUSH1 0x40 MLOAD DUP1 SWAP2 SUB SWAP1 KECCAK256 SLOAD SWAP1 POP SWAP3 SWAP2 POP POP JUMP JUMPDEST PUSH1 0x60 PUSH1 0x0 DUP3 SUB PUSH2 0x15E7 JUMPI PUSH1 0x40 MLOAD DUP1 PUSH1 0x40 ADD PUSH1 0x40 MSTORE DUP1 PUSH1 0x1 DUP2 MSTORE PUSH1 0x20 ADD PUSH32 0x3000000000000000000000000000000000000000000000000000000000000000 DUP2 MSTORE POP SWAP1 POP PUSH2 0x1723 JUMP JUMPDEST PUSH1 0x0 DUP3 SWAP1 POP PUSH1 0x0 JUMPDEST PUSH1 0x0 DUP3 EQ PUSH2 0x1619 JUMPI DUP1 DUP1 PUSH2 0x1602 SWAP1 PUSH2 0x2117 JUMP JUMPDEST SWAP2 POP POP PUSH1 0xA DUP3 PUSH2 0x1612 SWAP2 SWAP1 PUSH2 0x267A JUMP JUMPDEST SWAP2 POP PUSH2 0x15EF JUMP JUMPDEST PUSH1 0x0 DUP2 PUSH8 0xFFFFFFFFFFFFFFFF DUP2 GT ISZERO PUSH2 0x1635 JUMPI PUSH2 0x1634 PUSH2 0x19AC JUMP JUMPDEST JUMPDEST PUSH1 0x40 MLOAD SWAP1 DUP1 DUP3 MSTORE DUP1 PUSH1 0x1F ADD PUSH1 0x1F NOT AND PUSH1 0x20 ADD DUP3 ADD PUSH1 0x40 MSTORE DUP1 ISZERO PUSH2 0x1667 JUMPI DUP2 PUSH1 0x20 ADD PUSH1 0x1 DUP3 MUL DUP1 CALLDATASIZE DUP4 CALLDATACOPY DUP1 DUP3 ADD SWAP2 POP POP SWAP1 POP JUMPDEST POP SWAP1 POP PUSH1 0x0 DUP3 SWAP1 POP JUMPDEST PUSH1 0x0 DUP7 EQ PUSH2 0x171B JUMPI PUSH1 0x1 DUP2 PUSH2 0x1685 SWAP2 SWAP1 PUSH2 0x1DBA JUMP JUMPDEST SWAP1 POP PUSH1 0x0 PUSH1 0xA DUP1 DUP9 PUSH2 0x1697 SWAP2 SWAP1 PUSH2 0x267A JUMP JUMPDEST PUSH2 0x16A1 SWAP2 SWAP1 PUSH2 0x26AB JUMP JUMPDEST DUP8 PUSH2 0x16AC SWAP2 SWAP1 PUSH2 0x1DBA JUMP JUMPDEST PUSH1 0x30 PUSH2 0x16B8 SWAP2 SWAP1 PUSH2 0x26FA JUMP JUMPDEST SWAP1 POP PUSH1 0x0 DUP2 PUSH1 0xF8 SHL SWAP1 POP DUP1 DUP5 DUP5 DUP2 MLOAD DUP2 LT PUSH2 0x16D6 JUMPI PUSH2 0x16D5 PUSH2 0x1E67 JUMP JUMPDEST JUMPDEST PUSH1 0x20 ADD ADD SWAP1 PUSH31 0xFFFFFFFFFFFFFFFFFFFFFFFFFFFFFFFFFFFFFFFFFFFFFFFFFFFFFFFFFFFFFF NOT AND SWAP1 DUP2 PUSH1 0x0 BYTE SWAP1 MSTORE8 POP PUSH1 0xA DUP9 PUSH2 0x1712 SWAP2 SWAP1 PUSH2 0x267A JUMP JUMPDEST SWAP8 POP POP POP PUSH2 0x1670 JUMP JUMPDEST DUP2 SWAP5 POP POP POP POP POP JUMPDEST SWAP2 SWAP1 POP JUMP JUMPDEST PUSH1 0x0 PUSH1 0x40 MLOAD SWAP1 POP SWAP1 JUMP JUMPDEST PUSH1 0x0 DUP1 REVERT JUMPDEST PUSH1 0x0 DUP1 REVERT JUMPDEST PUSH1 0x0 PUSH20 0xFFFFFFFFFFFFFFFFFFFFFFFFFFFFFFFFFFFFFFFF DUP3 AND SWAP1 POP SWAP2 SWAP1 POP JUMP JUMPDEST PUSH1 0x0 PUSH2 0x1767 DUP3 PUSH2 0x173C JUMP JUMPDEST SWAP1 POP SWAP2 SWAP1 POP JUMP JUMPDEST PUSH2 0x1777 DUP2 PUSH2 0x175C JUMP JUMPDEST DUP2 EQ PUSH2 0x1782 JUMPI PUSH1 0x0 DUP1 REVERT JUMPDEST POP JUMP JUMPDEST PUSH1 0x0 DUP2 CALLDATALOAD SWAP1 POP PUSH2 0x1794 DUP2 PUSH2 0x176E JUMP JUMPDEST SWAP3 SWAP2 POP POP JUMP JUMPDEST PUSH1 0x0 DUP2 SWAP1 POP SWAP2 SWAP1 POP JUMP JUMPDEST PUSH2 0x17AD DUP2 PUSH2 0x179A JUMP JUMPDEST DUP2 EQ PUSH2 0x17B8 JUMPI PUSH1 0x0 DUP1 REVERT JUMPDEST POP JUMP JUMPDEST PUSH1 0x0 DUP2 CALLDATALOAD SWAP1 POP PUSH2 0x17CA DUP2 PUSH2 0x17A4 JUMP JUMPDEST SWAP3 SWAP2 POP POP JUMP JUMPDEST PUSH1 0x0 DUP1 PUSH1 0x40 DUP4 DUP6 SUB SLT ISZERO PUSH2 0x17E7 JUMPI PUSH2 0x17E6 PUSH2 0x1732 JUMP JUMPDEST JUMPDEST PUSH1 0x0 PUSH2 0x17F5 DUP6 DUP3 DUP7 ADD PUSH2 0x1785 JUMP JUMPDEST SWAP3 POP POP PUSH1 0x20 PUSH2 0x1806 DUP6 DUP3 DUP7 ADD PUSH2 0x17BB JUMP JUMPDEST SWAP2 POP POP SWAP3 POP SWAP3 SWAP1 POP JUMP JUMPDEST PUSH1 0x0 DUP2 ISZERO ISZERO SWAP1 POP SWAP2 SWAP1 POP JUMP JUMPDEST PUSH2 0x1825 DUP2 PUSH2 0x1810 JUMP JUMPDEST DUP3 MSTORE POP POP JUMP JUMPDEST PUSH1 0x0 PUSH1 0x20 DUP3 ADD SWAP1 POP PUSH2 0x1840 PUSH1 0x0 DUP4 ADD DUP5 PUSH2 0x181C JUMP JUMPDEST SWAP3 SWAP2 POP POP JUMP JUMPDEST PUSH2 0x184F DUP2 PUSH2 0x179A JUMP JUMPDEST DUP3 MSTORE POP POP JUMP JUMPDEST PUSH1 0x0 PUSH1 0x20 DUP3 ADD SWAP1 POP PUSH2 0x186A PUSH1 0x0 DUP4 ADD DUP5 PUSH2 0x1846 JUMP JUMPDEST SWAP3 SWAP2 POP POP JUMP JUMPDEST PUSH1 0x0 DUP1 PUSH1 0x0 PUSH1 0x60 DUP5 DUP7 SUB SLT ISZERO PUSH2 0x1889 JUMPI PUSH2 0x1888 PUSH2 0x1732 JUMP JUMPDEST JUMPDEST PUSH1 0x0 PUSH2 0x1897 DUP7 DUP3 DUP8 ADD PUSH2 0x1785 JUMP JUMPDEST SWAP4 POP POP PUSH1 0x20 PUSH2 0x18A8 DUP7 DUP3 DUP8 ADD PUSH2 0x1785 JUMP JUMPDEST SWAP3 POP POP PUSH1 0x40 PUSH2 0x18B9 DUP7 DUP3 DUP8 ADD PUSH2 0x17BB JUMP JUMPDEST SWAP2 POP POP SWAP3 POP SWAP3 POP SWAP3 JUMP JUMPDEST PUSH1 0x0 DUP2 MLOAD SWAP1 POP SWAP2 SWAP1 POP JUMP JUMPDEST PUSH1 0x0 DUP3 DUP3 MSTORE PUSH1 0x20 DUP3 ADD SWAP1 POP SWAP3 SWAP2 POP POP JUMP JUMPDEST PUSH1 0x0 JUMPDEST DUP4 DUP2 LT ISZERO PUSH2 0x18FD JUMPI DUP1 DUP3 ADD MLOAD DUP2 DUP5 ADD MSTORE PUSH1 0x20 DUP2 ADD SWAP1 POP PUSH2 0x18E2 JUMP JUMPDEST PUSH1 0x0 DUP5 DUP5 ADD MSTORE POP POP POP POP JUMP JUMPDEST PUSH1 0x0 PUSH1 0x1F NOT PUSH1 0x1F DUP4 ADD AND SWAP1 POP SWAP2 SWAP1 POP JUMP JUMPDEST PUSH1 0x0 PUSH2 0x1925 DUP3 PUSH2 0x18C3 JUMP JUMPDEST PUSH2 0x192F DUP2 DUP6 PUSH2 0x18CE JUMP JUMPDEST SWAP4 POP PUSH2 0x193F DUP2 DUP6 PUSH1 0x20 DUP7 ADD PUSH2 0x18DF JUMP JUMPDEST PUSH2 0x1948 DUP2 PUSH2 0x1909 JUMP JUMPDEST DUP5 ADD SWAP2 POP POP SWAP3 SWAP2 POP POP JUMP JUMPDEST PUSH1 0x0 PUSH1 0x20 DUP3 ADD SWAP1 POP DUP2 DUP2 SUB PUSH1 0x0 DUP4 ADD MSTORE PUSH2 0x196D DUP2 DUP5 PUSH2 0x191A JUMP JUMPDEST SWAP1 POP SWAP3 SWAP2 POP POP JUMP JUMPDEST PUSH1 0x0 PUSH1 0x20 DUP3 DUP5 SUB SLT ISZERO PUSH2 0x198B JUMPI PUSH2 0x198A PUSH2 0x1732 JUMP JUMPDEST JUMPDEST PUSH1 0x0 PUSH2 0x1999 DUP5 DUP3 DUP6 ADD PUSH2 0x17BB JUMP JUMPDEST SWAP2 POP POP SWAP3 SWAP2 POP POP JUMP JUMPDEST PUSH1 0x0 DUP1 REVERT JUMPDEST PUSH1 0x0 DUP1 REVERT JUMPDEST PUSH32 0x4E487B7100000000000000000000000000000000000000000000000000000000 PUSH1 0x0 MSTORE PUSH1 0x41 PUSH1 0x4 MSTORE PUSH1 0x24 PUSH1 0x0 REVERT JUMPDEST PUSH2 0x19E4 DUP3 PUSH2 0x1909 JUMP JUMPDEST DUP2 ADD DUP2 DUP2 LT PUSH8 0xFFFFFFFFFFFFFFFF DUP3 GT OR ISZERO PUSH2 0x1A03 JUMPI PUSH2 0x1A02 PUSH2 0x19AC JUMP JUMPDEST JUMPDEST DUP1 PUSH1 0x40 MSTORE POP POP POP JUMP JUMPDEST PUSH1 0x0 PUSH2 0x1A16 PUSH2 0x1728 JUMP JUMPDEST SWAP1 POP PUSH2 0x1A22 DUP3 DUP3 PUSH2 0x19DB JUMP JUMPDEST SWAP2 SWAP1 POP JUMP JUMPDEST PUSH1 0x0 PUSH8 0xFFFFFFFFFFFFFFFF DUP3 GT ISZERO PUSH2 0x1A42 JUMPI PUSH2 0x1A41 PUSH2 0x19AC JUMP JUMPDEST JUMPDEST PUSH2 0x1A4B DUP3 PUSH2 0x1909 JUMP JUMPDEST SWAP1 POP PUSH1 0x20 DUP2 ADD SWAP1 POP SWAP2 SWAP1 POP JUMP JUMPDEST DUP3 DUP2 DUP4 CALLDATACOPY PUSH1 0x0 DUP4 DUP4 ADD MSTORE POP POP POP JUMP JUMPDEST PUSH1 0x0 PUSH2 0x1A7A PUSH2 0x1A75 DUP5 PUSH2 0x1A27 JUMP JUMPDEST PUSH2 0x1A0C JUMP JUMPDEST SWAP1 POP DUP3 DUP2 MSTORE PUSH1 0x20 DUP2 ADD DUP5 DUP5 DUP5 ADD GT ISZERO PUSH2 0x1A96 JUMPI PUSH2 0x1A95 PUSH2 0x19A7 JUMP JUMPDEST JUMPDEST PUSH2 0x1AA1 DUP5 DUP3 DUP6 PUSH2 0x1A58 JUMP JUMPDEST POP SWAP4 SWAP3 POP POP POP JUMP JUMPDEST PUSH1 0x0 DUP3 PUSH1 0x1F DUP4 ADD SLT PUSH2 0x1ABE JUMPI PUSH2 0x1ABD PUSH2 0x19A2 JUMP JUMPDEST JUMPDEST DUP2 CALLDATALOAD PUSH2 0x1ACE DUP5 DUP3 PUSH1 0x20 DUP7 ADD PUSH2 0x1A67 JUMP JUMPDEST SWAP2 POP POP SWAP3 SWAP2 POP POP JUMP JUMPDEST PUSH1 0x0 DUP1 PUSH1 0x40 DUP4 DUP6 SUB SLT ISZERO PUSH2 0x1AEE JUMPI PUSH2 0x1AED PUSH2 0x1732 JUMP JUMPDEST JUMPDEST PUSH1 0x0 DUP4 ADD CALLDATALOAD PUSH8 0xFFFFFFFFFFFFFFFF DUP2 GT ISZERO PUSH2 0x1B0C JUMPI PUSH2 0x1B0B PUSH2 0x1737 JUMP JUMPDEST JUMPDEST PUSH2 0x1B18 DUP6 DUP3 DUP7 ADD PUSH2 0x1AA9 JUMP JUMPDEST SWAP3 POP POP PUSH1 0x20 PUSH2 0x1B29 DUP6 DUP3 DUP7 ADD PUSH2 0x17BB JUMP JUMPDEST SWAP2 POP POP SWAP3 POP SWAP3 SWAP1 POP JUMP JUMPDEST PUSH1 0x0 PUSH1 0x20 DUP3 DUP5 SUB SLT ISZERO PUSH2 0x1B49 JUMPI PUSH2 0x1B48 PUSH2 0x1732 JUMP JUMPDEST JUMPDEST PUSH1 0x0 PUSH2 0x1B57 DUP5 DUP3 DUP6 ADD PUSH2 0x1785 JUMP JUMPDEST SWAP2 POP POP SWAP3 SWAP2 POP POP JUMP JUMPDEST PUSH1 0x0 DUP2 MLOAD SWAP1 POP SWAP2 SWAP1 POP JUMP JUMPDEST PUSH1 0x0 DUP3 DUP3 MSTORE PUSH1 0x20 DUP3 ADD SWAP1 POP SWAP3 SWAP2 POP POP JUMP JUMPDEST PUSH1 0x0 DUP2 SWAP1 POP PUSH1 0x20 DUP3 ADD SWAP1 POP SWAP2 SWAP1 POP JUMP JUMPDEST PUSH1 0x0 DUP3 DUP3 MSTORE PUSH1 0x20 DUP3 ADD SWAP1 POP SWAP3 SWAP2 POP POP JUMP JUMPDEST PUSH1 0x0 PUSH2 0x1BA8 DUP3 PUSH2 0x18C3 JUMP JUMPDEST PUSH2 0x1BB2 DUP2 DUP6 PUSH2 0x1B8C JUMP JUMPDEST SWAP4 POP PUSH2 0x1BC2 DUP2 DUP6 PUSH1 0x20 DUP7 ADD PUSH2 0x18DF JUMP JUMPDEST PUSH2 0x1BCB DUP2 PUSH2 0x1909 JUMP JUMPDEST DUP5 ADD SWAP2 POP POP SWAP3 SWAP2 POP POP JUMP JUMPDEST PUSH1 0x0 PUSH2 0x1BE2 DUP4 DUP4 PUSH2 0x1B9D JUMP JUMPDEST SWAP1 POP SWAP3 SWAP2 POP POP JUMP JUMPDEST PUSH1 0x0 PUSH1 0x20 DUP3 ADD SWAP1 POP SWAP2 SWAP1 POP JUMP JUMPDEST PUSH1 0x0 PUSH2 0x1C02 DUP3 PUSH2 0x1B60 JUMP JUMPDEST PUSH2 0x1C0C DUP2 DUP6 PUSH2 0x1B6B JUMP JUMPDEST SWAP4 POP DUP4 PUSH1 0x20 DUP3 MUL DUP6 ADD PUSH2 0x1C1E DUP6 PUSH2 0x1B7C JUMP JUMPDEST DUP1 PUSH1 0x0 JUMPDEST DUP6 DUP2 LT ISZERO PUSH2 0x1C5A JUMPI DUP5 DUP5 SUB DUP10 MSTORE DUP2 MLOAD PUSH2 0x1C3B DUP6 DUP3 PUSH2 0x1BD6 JUMP JUMPDEST SWAP5 POP PUSH2 0x1C46 DUP4 PUSH2 0x1BEA JUMP JUMPDEST SWAP3 POP PUSH1 0x20 DUP11 ADD SWAP10 POP POP PUSH1 0x1 DUP2 ADD SWAP1 POP PUSH2 0x1C22 JUMP JUMPDEST POP DUP3 SWAP8 POP DUP8 SWAP6 POP POP POP POP POP POP SWAP3 SWAP2 POP POP JUMP JUMPDEST PUSH1 0x0 PUSH1 0x20 DUP3 ADD SWAP1 POP DUP2 DUP2 SUB PUSH1 0x0 DUP4 ADD MSTORE PUSH2 0x1C86 DUP2 DUP5 PUSH2 0x1BF7 JUMP JUMPDEST SWAP1 POP SWAP3 SWAP2 POP POP JUMP JUMPDEST PUSH1 0x0 DUP1 PUSH1 0x40 DUP4 DUP6 SUB SLT ISZERO PUSH2 0x1CA5 JUMPI PUSH2 0x1CA4 PUSH2 0x1732 JUMP JUMPDEST JUMPDEST PUSH1 0x0 PUSH2 0x1CB3 DUP6 DUP3 DUP7 ADD PUSH2 0x1785 JUMP JUMPDEST SWAP3 POP POP PUSH1 0x20 PUSH2 0x1CC4 DUP6 DUP3 DUP7 ADD PUSH2 0x1785 JUMP JUMPDEST SWAP2 POP POP SWAP3 POP SWAP3 SWAP1 POP JUMP JUMPDEST PUSH1 0x0 DUP1 PUSH1 0x40 DUP4 DUP6 SUB SLT ISZERO PUSH2 0x1CE5 JUMPI PUSH2 0x1CE4 PUSH2 0x1732 JUMP JUMPDEST JUMPDEST PUSH1 0x0 PUSH2 0x1CF3 DUP6 DUP3 DUP7 ADD PUSH2 0x1785 JUMP JUMPDEST SWAP3 POP POP PUSH1 0x20 DUP4 ADD CALLDATALOAD PUSH8 0xFFFFFFFFFFFFFFFF DUP2 GT ISZERO PUSH2 0x1D14 JUMPI PUSH2 0x1D13 PUSH2 0x1737 JUMP JUMPDEST JUMPDEST PUSH2 0x1D20 DUP6 DUP3 DUP7 ADD PUSH2 0x1AA9 JUMP JUMPDEST SWAP2 POP POP SWAP3 POP SWAP3 SWAP1 POP JUMP JUMPDEST PUSH2 0x1D33 DUP2 PUSH2 0x175C JUMP JUMPDEST DUP3 MSTORE POP POP JUMP JUMPDEST PUSH1 0x0 PUSH1 0x20 DUP3 ADD SWAP1 POP PUSH2 0x1D4E PUSH1 0x0 DUP4 ADD DUP5 PUSH2 0x1D2A JUMP JUMPDEST SWAP3 SWAP2 POP POP JUMP JUMPDEST PUSH1 0x0 PUSH1 0x60 DUP3 ADD SWAP1 POP PUSH2 0x1D69 PUSH1 0x0 DUP4 ADD DUP7 PUSH2 0x1D2A JUMP JUMPDEST PUSH2 0x1D76 PUSH1 0x20 DUP4 ADD DUP6 PUSH2 0x1846 JUMP JUMPDEST PUSH2 0x1D83 PUSH1 0x40 DUP4 ADD DUP5 PUSH2 0x1846 JUMP JUMPDEST SWAP5 SWAP4 POP POP POP POP JUMP JUMPDEST PUSH32 0x4E487B7100000000000000000000000000000000000000000000000000000000 PUSH1 0x0 MSTORE PUSH1 0x11 PUSH1 0x4 MSTORE PUSH1 0x24 PUSH1 0x0 REVERT JUMPDEST PUSH1 0x0 PUSH2 0x1DC5 DUP3 PUSH2 0x179A JUMP JUMPDEST SWAP2 POP PUSH2 0x1DD0 DUP4 PUSH2 0x179A JUMP JUMPDEST SWAP3 POP DUP3 DUP3 SUB SWAP1 POP DUP2 DUP2 GT ISZERO PUSH2 0x1DE8 JUMPI PUSH2 0x1DE7 PUSH2 0x1D8B JUMP JUMPDEST JUMPDEST SWAP3 SWAP2 POP POP JUMP JUMPDEST PUSH1 0x0 PUSH2 0x1DF9 DUP3 PUSH2 0x179A JUMP JUMPDEST SWAP2 POP PUSH2 0x1E04 DUP4 PUSH2 0x179A JUMP JUMPDEST SWAP3 POP DUP3 DUP3 ADD SWAP1 POP DUP1 DUP3 GT ISZERO PUSH2 0x1E1C JUMPI PUSH2 0x1E1B PUSH2 0x1D8B JUMP JUMPDEST JUMPDEST SWAP3 SWAP2 POP POP JUMP JUMPDEST PUSH1 0x0 PUSH1 0x80 DUP3 ADD SWAP1 POP PUSH2 0x1E37 PUSH1 0x0 DUP4 ADD DUP8 PUSH2 0x1D2A JUMP JUMPDEST PUSH2 0x1E44 PUSH1 0x20 DUP4 ADD DUP7 PUSH2 0x1D2A JUMP JUMPDEST PUSH2 0x1E51 PUSH1 0x40 DUP4 ADD DUP6 PUSH2 0x1846 JUMP JUMPDEST PUSH2 0x1E5E PUSH1 0x60 DUP4 ADD DUP5 PUSH2 0x1846 JUMP JUMPDEST SWAP6 SWAP5 POP POP POP POP POP JUMP JUMPDEST PUSH32 0x4E487B7100000000000000000000000000000000000000000000000000000000 PUSH1 0x0 MSTORE PUSH1 0x32 PUSH1 0x4 MSTORE PUSH1 0x24 PUSH1 0x0 REVERT JUMPDEST PUSH1 0x0 DUP2 SWAP1 POP SWAP3 SWAP2 POP POP JUMP JUMPDEST PUSH1 0x0 PUSH2 0x1EAC DUP3 PUSH2 0x18C3 JUMP JUMPDEST PUSH2 0x1EB6 DUP2 DUP6 PUSH2 0x1E96 JUMP JUMPDEST SWAP4 POP PUSH2 0x1EC6 DUP2 DUP6 PUSH1 0x20 DUP7 ADD PUSH2 0x18DF JUMP JUMPDEST DUP1 DUP5 ADD SWAP2 POP POP SWAP3 SWAP2 POP POP JUMP JUMPDEST PUSH32 0x4E487B7100000000000000000000000000000000000000000000000000000000 PUSH1 0x0 MSTORE PUSH1 0x22 PUSH1 0x4 MSTORE PUSH1 0x24 PUSH1 0x0 REVERT JUMPDEST PUSH1 0x0 PUSH1 0x2 DUP3 DIV SWAP1 POP PUSH1 0x1 DUP3 AND DUP1 PUSH2 0x1F19 JUMPI PUSH1 0x7F DUP3 AND SWAP2 POP JUMPDEST PUSH1 0x20 DUP3 LT DUP2 SUB PUSH2 0x1F2C JUMPI PUSH2 0x1F2B PUSH2 0x1ED2 JUMP JUMPDEST JUMPDEST POP SWAP2 SWAP1 POP JUMP JUMPDEST PUSH1 0x0 DUP2 SWAP1 POP DUP2 PUSH1 0x0 MSTORE PUSH1 0x20 PUSH1 0x0 KECCAK256 SWAP1 POP SWAP2 SWAP1 POP JUMP JUMPDEST PUSH1 0x0 DUP2 SLOAD PUSH2 0x1F54 DUP2 PUSH2 0x1F01 JUMP JUMPDEST PUSH2 0x1F5E DUP2 DUP7 PUSH2 0x1E96 JUMP JUMPDEST SWAP5 POP PUSH1 0x1 DUP3 AND PUSH1 0x0 DUP2 EQ PUSH2 0x1F79 JUMPI PUSH1 0x1 DUP2 EQ PUSH2 0x1F8E JUMPI PUSH2 0x1FC1 JUMP JUMPDEST PUSH1 0xFF NOT DUP4 AND DUP7 MSTORE DUP2 ISZERO ISZERO DUP3 MUL DUP7 ADD SWAP4 POP PUSH2 0x1FC1 JUMP JUMPDEST PUSH2 0x1F97 DUP6 PUSH2 0x1F32 JUMP JUMPDEST PUSH1 0x0 JUMPDEST DUP4 DUP2 LT ISZERO PUSH2 0x1FB9 JUMPI DUP2 SLOAD DUP2 DUP10 ADD MSTORE PUSH1 0x1 DUP3 ADD SWAP2 POP PUSH1 0x20 DUP2 ADD SWAP1 POP PUSH2 0x1F9A JUMP JUMPDEST DUP4 DUP9 ADD SWAP6 POP POP POP JUMPDEST POP POP POP SWAP3 SWAP2 POP POP JUMP JUMPDEST PUSH32 0x2800000000000000000000000000000000000000000000000000000000000000 PUSH1 0x0 DUP3 ADD MSTORE POP JUMP JUMPDEST PUSH1 0x0 PUSH2 0x2000 PUSH1 0x1 DUP4 PUSH2 0x1E96 JUMP JUMPDEST SWAP2 POP PUSH2 0x200B DUP3 PUSH2 0x1FCA JUMP JUMPDEST PUSH1 0x1 DUP3 ADD SWAP1 POP SWAP2 SWAP1 POP JUMP JUMPDEST PUSH32 0x2900000000000000000000000000000000000000000000000000000000000000 PUSH1 0x0 DUP3 ADD MSTORE POP JUMP JUMPDEST PUSH1 0x0 PUSH2 0x204C PUSH1 0x1 DUP4 PUSH2 0x1E96 JUMP JUMPDEST SWAP2 POP PUSH2 0x2057 DUP3 PUSH2 0x2016 JUMP JUMPDEST PUSH1 0x1 DUP3 ADD SWAP1 POP SWAP2 SWAP1 POP JUMP JUMPDEST PUSH1 0x0 PUSH2 0x206E DUP3 DUP7 PUSH2 0x1EA1 JUMP JUMPDEST SWAP2 POP PUSH2 0x207A DUP3 DUP6 PUSH2 0x1F47 JUMP JUMPDEST SWAP2 POP PUSH2 0x2085 DUP3 PUSH2 0x1FF3 JUMP JUMPDEST SWAP2 POP PUSH2 0x2091 DUP3 DUP5 PUSH2 0x1EA1 JUMP JUMPDEST SWAP2 POP PUSH2 0x209C DUP3 PUSH2 0x203F JUMP JUMPDEST SWAP2 POP DUP2 SWAP1 POP SWAP5 SWAP4 POP POP POP POP JUMP JUMPDEST PUSH32 0x2C20000000000000000000000000000000000000000000000000000000000000 PUSH1 0x0 DUP3 ADD MSTORE POP JUMP JUMPDEST PUSH1 0x0 PUSH2 0x20DF PUSH1 0x2 DUP4 PUSH2 0x1E96 JUMP JUMPDEST SWAP2 POP PUSH2 0x20EA DUP3 PUSH2 0x20A9 JUMP JUMPDEST PUSH1 0x2 DUP3 ADD SWAP1 POP SWAP2 SWAP1 POP JUMP JUMPDEST PUSH1 0x0 PUSH2 0x2101 DUP3 DUP5 PUSH2 0x1EA1 JUMP JUMPDEST SWAP2 POP PUSH2 0x210C DUP3 PUSH2 0x20D2 JUMP JUMPDEST SWAP2 POP DUP2 SWAP1 POP SWAP3 SWAP2 POP POP JUMP JUMPDEST PUSH1 0x0 PUSH2 0x2122 DUP3 PUSH2 0x179A JUMP JUMPDEST SWAP2 POP PUSH32 0xFFFFFFFFFFFFFFFFFFFFFFFFFFFFFFFFFFFFFFFFFFFFFFFFFFFFFFFFFFFFFFFF DUP3 SUB PUSH2 0x2154 JUMPI PUSH2 0x2153 PUSH2 0x1D8B JUMP JUMPDEST JUMPDEST PUSH1 0x1 DUP3 ADD SWAP1 POP SWAP2 SWAP1 POP JUMP JUMPDEST PUSH32 0x4F6E6C79206F776E657220697320616C6C6F77656420746F20706572666F726D PUSH1 0x0 DUP3 ADD MSTORE PUSH32 0x2074686973206F7065726174696F6E0000000000000000000000000000000000 PUSH1 0x20 DUP3 ADD MSTORE POP JUMP JUMPDEST PUSH1 0x0 PUSH2 0x21BB PUSH1 0x2F DUP4 PUSH2 0x18CE JUMP JUMPDEST SWAP2 POP PUSH2 0x21C6 DUP3 PUSH2 0x215F JUMP JUMPDEST PUSH1 0x40 DUP3 ADD SWAP1 POP SWAP2 SWAP1 POP JUMP JUMPDEST PUSH1 0x0 PUSH1 0x20 DUP3 ADD SWAP1 POP DUP2 DUP2 SUB PUSH1 0x0 DUP4 ADD MSTORE PUSH2 0x21EA DUP2 PUSH2 0x21AE JUMP JUMPDEST SWAP1 POP SWAP2 SWAP1 POP JUMP JUMPDEST PUSH1 0x0 PUSH1 0x40 DUP3 ADD SWAP1 POP PUSH2 0x2206 PUSH1 0x0 DUP4 ADD DUP6 PUSH2 0x1D2A JUMP JUMPDEST PUSH2 0x2213 PUSH1 0x20 DUP4 ADD DUP5 PUSH2 0x1846 JUMP JUMPDEST SWAP4 SWAP3 POP POP POP JUMP JUMPDEST PUSH32 0x4F6E6C79206F776E65722063616E20616464206974656D7320746F2074686520 PUSH1 0x0 DUP3 ADD MSTORE PUSH32 0x696E76656E746F72790000000000000000000000000000000000000000000000 PUSH1 0x20 DUP3 ADD MSTORE POP JUMP JUMPDEST PUSH1 0x0 PUSH2 0x2276 PUSH1 0x29 DUP4 PUSH2 0x18CE JUMP JUMPDEST SWAP2 POP PUSH2 0x2281 DUP3 PUSH2 0x221A JUMP JUMPDEST PUSH1 0x40 DUP3 ADD SWAP1 POP SWAP2 SWAP1 POP JUMP JUMPDEST PUSH1 0x0 PUSH1 0x20 DUP3 ADD SWAP1 POP DUP2 DUP2 SUB PUSH1 0x0 DUP4 ADD MSTORE PUSH2 0x22A5 DUP2 PUSH2 0x2269 JUMP JUMPDEST SWAP1 POP SWAP2 SWAP1 POP JUMP JUMPDEST PUSH1 0x0 PUSH1 0x20 PUSH1 0x1F DUP4 ADD DIV SWAP1 POP SWAP2 SWAP1 POP JUMP JUMPDEST PUSH1 0x0 DUP3 DUP3 SHL SWAP1 POP SWAP3 SWAP2 POP POP JUMP JUMPDEST PUSH1 0x0 PUSH1 0x8 DUP4 MUL PUSH2 0x22F9 PUSH32 0xFFFFFFFFFFFFFFFFFFFFFFFFFFFFFFFFFFFFFFFFFFFFFFFFFFFFFFFFFFFFFFFF DUP3 PUSH2 0x22BC JUMP JUMPDEST PUSH2 0x2303 DUP7 DUP4 PUSH2 0x22BC JUMP JUMPDEST SWAP6 POP DUP1 NOT DUP5 AND SWAP4 POP DUP1 DUP7 AND DUP5 OR SWAP3 POP POP POP SWAP4 SWAP3 POP POP POP JUMP JUMPDEST PUSH1 0x0 DUP2 SWAP1 POP SWAP2 SWAP1 POP JUMP JUMPDEST PUSH1 0x0 PUSH2 0x2340 PUSH2 0x233B PUSH2 0x2336 DUP5 PUSH2 0x179A JUMP JUMPDEST PUSH2 0x231B JUMP JUMPDEST PUSH2 0x179A JUMP JUMPDEST SWAP1 POP SWAP2 SWAP1 POP JUMP JUMPDEST PUSH1 0x0 DUP2 SWAP1 POP SWAP2 SWAP1 POP JUMP JUMPDEST PUSH2 0x235A DUP4 PUSH2 0x2325 JUMP JUMPDEST PUSH2 0x236E PUSH2 0x2366 DUP3 PUSH2 0x2347 JUMP JUMPDEST DUP5 DUP5 SLOAD PUSH2 0x22C9 JUMP JUMPDEST DUP3 SSTORE POP POP POP POP JUMP JUMPDEST PUSH1 0x0 SWAP1 JUMP JUMPDEST PUSH2 0x2383 PUSH2 0x2376 JUMP JUMPDEST PUSH2 0x238E DUP2 DUP5 DUP5 PUSH2 0x2351 JUMP JUMPDEST POP POP POP JUMP JUMPDEST JUMPDEST DUP2 DUP2 LT ISZERO PUSH2 0x23B2 JUMPI PUSH2 0x23A7 PUSH1 0x0 DUP3 PUSH2 0x237B JUMP JUMPDEST PUSH1 0x1 DUP2 ADD SWAP1 POP PUSH2 0x2394 JUMP JUMPDEST POP POP JUMP JUMPDEST PUSH1 0x1F DUP3 GT ISZERO PUSH2 0x23F7 JUMPI PUSH2 0x23C8 DUP2 PUSH2 0x1F32 JUMP JUMPDEST PUSH2 0x23D1 DUP5 PUSH2 0x22AC JUMP JUMPDEST DUP2 ADD PUSH1 0x20 DUP6 LT ISZERO PUSH2 0x23E0 JUMPI DUP2 SWAP1 POP JUMPDEST PUSH2 0x23F4 PUSH2 0x23EC DUP6 PUSH2 0x22AC JUMP JUMPDEST DUP4 ADD DUP3 PUSH2 0x2393 JUMP JUMPDEST POP POP JUMPDEST POP POP POP JUMP JUMPDEST PUSH1 0x0 DUP3 DUP3 SHR SWAP1 POP SWAP3 SWAP2 POP POP JUMP JUMPDEST PUSH1 0x0 PUSH2 0x241A PUSH1 0x0 NOT DUP5 PUSH1 0x8 MUL PUSH2 0x23FC JUMP JUMPDEST NOT DUP1 DUP4 AND SWAP2 POP POP SWAP3 SWAP2 POP POP JUMP JUMPDEST PUSH1 0x0 PUSH2 0x2433 DUP4 DUP4 PUSH2 0x2409 JUMP JUMPDEST SWAP2 POP DUP3 PUSH1 0x2 MUL DUP3 OR SWAP1 POP SWAP3 SWAP2 POP POP JUMP JUMPDEST PUSH2 0x244C DUP3 PUSH2 0x18C3 JUMP JUMPDEST PUSH8 0xFFFFFFFFFFFFFFFF DUP2 GT ISZERO PUSH2 0x2465 JUMPI PUSH2 0x2464 PUSH2 0x19AC JUMP JUMPDEST JUMPDEST PUSH2 0x246F DUP3 SLOAD PUSH2 0x1F01 JUMP JUMPDEST PUSH2 0x247A DUP3 DUP3 DUP6 PUSH2 0x23B6 JUMP JUMPDEST PUSH1 0x0 PUSH1 0x20 SWAP1 POP PUSH1 0x1F DUP4 GT PUSH1 0x1 DUP2 EQ PUSH2 0x24AD JUMPI PUSH1 0x0 DUP5 ISZERO PUSH2 0x249B JUMPI DUP3 DUP8 ADD MLOAD SWAP1 POP JUMPDEST PUSH2 0x24A5 DUP6 DUP3 PUSH2 0x2427 JUMP JUMPDEST DUP7 SSTORE POP PUSH2 0x250D JUMP JUMPDEST PUSH1 0x1F NOT DUP5 AND PUSH2 0x24BB DUP7 PUSH2 0x1F32 JUMP JUMPDEST PUSH1 0x0 JUMPDEST DUP3 DUP2 LT ISZERO PUSH2 0x24E3 JUMPI DUP5 DUP10 ADD MLOAD DUP3 SSTORE PUSH1 0x1 DUP3 ADD SWAP2 POP PUSH1 0x20 DUP6 ADD SWAP5 POP PUSH1 0x20 DUP2 ADD SWAP1 POP PUSH2 0x24BE JUMP JUMPDEST DUP7 DUP4 LT ISZERO PUSH2 0x2500 JUMPI DUP5 DUP10 ADD MLOAD PUSH2 0x24FC PUSH1 0x1F DUP10 AND DUP3 PUSH2 0x2409 JUMP JUMPDEST DUP4 SSTORE POP JUMPDEST PUSH1 0x1 PUSH1 0x2 DUP9 MUL ADD DUP9 SSTORE POP POP POP JUMPDEST POP POP POP POP POP POP JUMP JUMPDEST PUSH1 0x0 PUSH1 0x40 DUP3 ADD SWAP1 POP DUP2 DUP2 SUB PUSH1 0x0 DUP4 ADD MSTORE PUSH2 0x252F DUP2 DUP6 PUSH2 0x191A JUMP JUMPDEST SWAP1 POP PUSH2 0x253E PUSH1 0x20 DUP4 ADD DUP5 PUSH2 0x1846 JUMP JUMPDEST SWAP4 SWAP3 POP POP POP JUMP JUMPDEST PUSH1 0x0 PUSH2 0x2551 DUP3 DUP5 PUSH2 0x1EA1 JUMP JUMPDEST SWAP2 POP DUP2 SWAP1 POP SWAP3 SWAP2 POP POP JUMP JUMPDEST PUSH1 0x0 PUSH2 0x2568 DUP3 DUP5 PUSH2 0x1F47 JUMP JUMPDEST SWAP2 POP DUP2 SWAP1 POP SWAP3 SWAP2 POP POP JUMP JUMPDEST PUSH32 0x4974656D206E6F7420666F756E6420696E20696E76656E746F72790000000000 PUSH1 0x0 DUP3 ADD MSTORE POP JUMP JUMPDEST PUSH1 0x0 PUSH2 0x25A9 PUSH1 0x1B DUP4 PUSH2 0x18CE JUMP JUMPDEST SWAP2 POP PUSH2 0x25B4 DUP3 PUSH2 0x2573 JUMP JUMPDEST PUSH1 0x20 DUP3 ADD SWAP1 POP SWAP2 SWAP1 POP JUMP JUMPDEST PUSH1 0x0 PUSH1 0x20 DUP3 ADD SWAP1 POP DUP2 DUP2 SUB PUSH1 0x0 DUP4 ADD MSTORE PUSH2 0x25D8 DUP2 PUSH2 0x259C JUMP JUMPDEST SWAP1 POP SWAP2 SWAP1 POP JUMP JUMPDEST PUSH32 0x496E636F72726563742076616C75652073656E74000000000000000000000000 PUSH1 0x0 DUP3 ADD MSTORE POP JUMP JUMPDEST PUSH1 0x0 PUSH2 0x2615 PUSH1 0x14 DUP4 PUSH2 0x18CE JUMP JUMPDEST SWAP2 POP PUSH2 0x2620 DUP3 PUSH2 0x25DF JUMP JUMPDEST PUSH1 0x20 DUP3 ADD SWAP1 POP SWAP2 SWAP1 POP JUMP JUMPDEST PUSH1 0x0 PUSH1 0x20 DUP3 ADD SWAP1 POP DUP2 DUP2 SUB PUSH1 0x0 DUP4 ADD MSTORE PUSH2 0x2644 DUP2 PUSH2 0x2608 JUMP JUMPDEST SWAP1 POP SWAP2 SWAP1 POP JUMP JUMPDEST PUSH32 0x4E487B7100000000000000000000000000000000000000000000000000000000 PUSH1 0x0 MSTORE PUSH1 0x12 PUSH1 0x4 MSTORE PUSH1 0x24 PUSH1 0x0 REVERT JUMPDEST PUSH1 0x0 PUSH2 0x2685 DUP3 PUSH2 0x179A JUMP JUMPDEST SWAP2 POP PUSH2 0x2690 DUP4 PUSH2 0x179A JUMP JUMPDEST SWAP3 POP DUP3 PUSH2 0x26A0 JUMPI PUSH2 0x269F PUSH2 0x264B JUMP JUMPDEST JUMPDEST DUP3 DUP3 DIV SWAP1 POP SWAP3 SWAP2 POP POP JUMP JUMPDEST PUSH1 0x0 PUSH2 0x26B6 DUP3 PUSH2 0x179A JUMP JUMPDEST SWAP2 POP PUSH2 0x26C1 DUP4 PUSH2 0x179A JUMP JUMPDEST SWAP3 POP DUP3 DUP3 MUL PUSH2 0x26CF DUP2 PUSH2 0x179A JUMP JUMPDEST SWAP2 POP DUP3 DUP3 DIV DUP5 EQ DUP4 ISZERO OR PUSH2 0x26E6 JUMPI PUSH2 0x26E5 PUSH2 0x1D8B JUMP JUMPDEST JUMPDEST POP SWAP3 SWAP2 POP POP JUMP JUMPDEST PUSH1 0x0 PUSH1 0xFF DUP3 AND SWAP1 POP SWAP2 SWAP1 POP JUMP JUMPDEST PUSH1 0x0 PUSH2 0x2705 DUP3 PUSH2 0x26ED JUMP JUMPDEST SWAP2 POP PUSH2 0x2710 DUP4 PUSH2 0x26ED JUMP JUMPDEST SWAP3 POP DUP3 DUP3 ADD SWAP1 POP PUSH1 0xFF DUP2 GT ISZERO PUSH2 0x2729 JUMPI PUSH2 0x2728 PUSH2 0x1D8B JUMP JUMPDEST JUMPDEST SWAP3 SWAP2 POP POP JUMP INVALID LOG2 PUSH5 0x6970667358 0x22 SLT KECCAK256 SLOAD SWAP16 0xB3 0xE8 0x5E SWAP9 MUL DUP5 0x5C PREVRANDAO LOG0 0xEF 0xA6 0x29 ADD SUB EXTCODEHASH BALANCE SWAP16 STATICCALL 0xEB PUSH13 0xCE9A6526C321481337CF64736F PUSH13 0x63430008140033000000000000 "},"methodIdentifiers":{"addItem(string,uint256)":"62d6bbdf","allowance(address,address)":"dd62ed3e","approve(address,uint256)":"095ea7b3","balanceOf(address)":"70a08231","burn(uint256)":"42966c68","getItemCount(address,string)":"e211cd6d","getPurchases(address)":"70cd5a80","mint(address,uint256)":"40c10f19","redeem(string,uint256)":"b1b86b13","showInventory()":"314563c4","totalSupply()":"18160ddd","transfer(address,uint256)":"a9059cbb","transferFrom(address,address,uint256)":"23b872dd"}}}}}