{
  "_format": "hh-sol-artifact-1",
  "contractName": "DegenToken",
  "sourceName": "contracts/DegenToken.sol",
  "abi": [
    {
      "inputs": [
        {
          "internalType": "string",
          "name": "name",
          "type": "string"
        },
        {
          "internalType": "string",
          "name": "symbol",
          "type": "string"
        }
      ],
      "stateMutability": "nonpayable",
      "type": "constructor"
    },
    {
      "inputs": [
        {
          "internalType": "address",
          "name": "spender",
          "type": "address"
        },
        {
          "internalType": "address",
          "name": "from",
          "type": "address"
        },
        {
          "internalType": "uint256",
          "name": "currentAllowance",
          "type": "uint256"
        },
        {
          "internalType": "uint256",
          "name": "value",
          "type": "uint256"
        }
      ],
      "name": "InsufficientAllowance",
      "type": "error"
    },
    {
      "inputs": [
        {
          "internalType": "address",
          "name": "from",
          "type": "address"
        },
        {
          "internalType": "uint256",
          "name": "fromBalance",
          "type": "uint256"
        },
        {
          "internalType": "uint256",
          "name": "value",
          "type": "uint256"
        }
      ],
      "name": "InsufficientBalance",
      "type": "error"
    },
    {
      "inputs": [
        {
          "internalType": "address",
          "name": "_to",
          "type": "address"
        }
      ],
      "name": "InvalidReceiver",
      "type": "error"
    },
    {
      "anonymous": false,
      "inputs": [
        {
          "indexed": true,
          "internalType": "address",
          "name": "owner",
          "type": "address"
        },
        {
          "indexed": true,
          "internalType": "address",
          "name": "spender",
          "type": "address"
        },
        {
          "indexed": false,
          "internalType": "uint256",
          "name": "value",
          "type": "uint256"
        }
      ],
      "name": "Approval",
      "type": "event"
    },
    {
      "anonymous": false,
      "inputs": [
        {
          "indexed": false,
          "internalType": "address",
          "name": "from",
          "type": "address"
        },
        {
          "indexed": false,
          "internalType": "uint256",
          "name": "value",
          "type": "uint256"
        }
      ],
      "name": "Burn",
      "type": "event"
    },
    {
      "anonymous": false,
      "inputs": [
        {
          "indexed": false,
          "internalType": "string",
          "name": "name",
          "type": "string"
        },
        {
          "indexed": false,
          "internalType": "uint256",
          "name": "price",
          "type": "uint256"
        }
      ],
      "name": "ItemAdded",
      "type": "event"
    },
    {
      "anonymous": false,
      "inputs": [
        {
          "indexed": false,
          "internalType": "address",
          "name": "to",
          "type": "address"
        },
        {
          "indexed": false,
          "internalType": "uint256",
          "name": "value",
          "type": "uint256"
        }
      ],
      "name": "Mint",
      "type": "event"
    },
    {
      "anonymous": false,
      "inputs": [
        {
          "indexed": true,
          "internalType": "address",
          "name": "from",
          "type": "address"
        },
        {
          "indexed": true,
          "internalType": "address",
          "name": "to",
          "type": "address"
        },
        {
          "indexed": false,
          "internalType": "uint256",
          "name": "value",
          "type": "uint256"
        }
      ],
      "name": "Transfer",
      "type": "event"
    },
    {
      "inputs": [
        {
          "internalType": "string",
          "name": "itemName",
          "type": "string"
        },
        {
          "internalType": "uint256",
          "name": "itemPrice",
          "type": "uint256"
        }
      ],
      "name": "addItem",
      "outputs": [],
      "stateMutability": "nonpayable",
      "type": "function"
    },
    {
      "inputs": [
        {
          "internalType": "address",
          "name": "owner",
          "type": "address"
        },
        {
          "internalType": "address",
          "name": "spender",
          "type": "address"
        }
      ],
      "name": "allowance",
      "outputs": [
        {
          "internalType": "uint256",
          "name": "",
          "type": "uint256"
        }
      ],
      "stateMutability": "view",
      "type": "function"
    },
    {
      "inputs": [
        {
          "internalType": "address",
          "name": "spender",
          "type": "address"
        },
        {
          "internalType": "uint256",
          "name": "value",
          "type": "uint256"
        }
      ],
      "name": "approve",
      "outputs": [
        {
          "internalType": "bool",
          "name": "",
          "type": "bool"
        }
      ],
      "stateMutability": "nonpayable",
      "type": "function"
    },
    {
      "inputs": [
        {
          "internalType": "address",
          "name": "account",
          "type": "address"
        }
      ],
      "name": "balanceOf",
      "outputs": [
        {
          "internalType": "uint256",
          "name": "",
          "type": "uint256"
        }
      ],
      "stateMutability": "view",
      "type": "function"
    },
    {
      "inputs": [
        {
          "internalType": "uint256",
          "name": "value",
          "type": "uint256"
        }
      ],
      "name": "burn",
      "outputs": [
        {
          "internalType": "bool",
          "name": "",
          "type": "bool"
        }
      ],
      "stateMutability": "nonpayable",
      "type": "function"
    },
    {
      "inputs": [
        {
          "internalType": "address",
          "name": "account",
          "type": "address"
        },
        {
          "internalType": "string",
          "name": "itemName",
          "type": "string"
        }
      ],
      "name": "getItemCount",
      "outputs": [
        {
          "internalType": "uint256",
          "name": "",
          "type": "uint256"
        }
      ],
      "stateMutability": "view",
      "type": "function"
    },
    {
      "inputs": [
        {
          "internalType": "address",
          "name": "account",
          "type": "address"
        }
      ],
      "name": "getPurchases",
      "outputs": [
        {
          "internalType": "string[]",
          "name": "",
          "type": "string[]"
        }
      ],
      "stateMutability": "view",
      "type": "function"
    },
    {
      "inputs": [
        {
          "internalType": "address",
          "name": "to",
          "type": "address"
        },
        {
          "internalType": "uint256",
          "name": "value",
          "type": "uint256"
        }
      ],
      "name": "mint",
      "outputs": [
        {
          "internalType": "bool",
          "name": "",
          "type": "bool"
        }
      ],
      "stateMutability": "nonpayable",
      "type": "function"
    },
    {
      "inputs": [
        {
          "internalType": "string",
          "name": "itemName",
          "type": "string"
        },
        {
          "internalType": "uint256",
          "name": "value",
          "type": "uint256"
        }
      ],
      "name": "redeem",
      "outputs": [],
      "stateMutability": "nonpayable",
      "type": "function"
    },
    {
      "inputs": [],
      "name": "showInventory",
      "outputs": [
        {
          "internalType": "string",
          "name": "",
          "type": "string"
        }
      ],
      "stateMutability": "view",
      "type": "function"
    },
    {
      "inputs": [],
      "name": "totalSupply",
      "outputs": [
        {
          "internalType": "uint256",
          "name": "",
          "type": "uint256"
        }
      ],
      "stateMutability": "view",
      "type": "function"
    },
    {
      "inputs": [
        {
          "internalType": "address",
          "name": "to",
          "type": "address"
        },
        {
          "internalType": "uint256",
          "name": "value",
          "type": "uint256"
        }
      ],
      "name": "transfer",
      "outputs": [
        {
          "internalType": "bool",
          "name": "",
          "type": "bool"
        }
      ],
      "stateMutability": "nonpayable",
      "type": "function"
    },
    {
      "inputs": [
        {
          "internalType": "address",
          "name": "from",
          "type": "address"
        },
        {
          "internalType": "address",
          "name": "to",
          "type": "address"
        },
        {
          "internalType": "uint256",
          "name": "value",
          "type": "uint256"
        }
      ],
      "name": "transferFrom",
      "outputs": [
        {
          "internalType": "bool",
          "name": "",
          "type": "bool"
        }
      ],
      "stateMutability": "nonpayable",
      "type": "function"
    }
  ],
  "bytecode": "0x60806040526040518060400160405280600581526020017f446567656e000000000000000000000000000000000000000000000000000000815250600090816200004a91906200055b565b506040518060400160405280600381526020017f44474e0000000000000000000000000000000000000000000000000000000000815250600190816200009191906200055b565b506000600655348015620000a457600080fd5b5060405162002fa038038062002fa08339818101604052810190620000ca9190620007a6565b33600260006101000a81548173ffffffffffffffffffffffffffffffffffffffff021916908373ffffffffffffffffffffffffffffffffffffffff160217905550600860405180604001604052806040518060400160405280600581526020017f73686972740000000000000000000000000000000000000000000000000000008152508152602001600a815250908060018154018082558091505060019003906000526020600020906002020160009091909190915060008201518160000190816200019891906200055b565b50602082015181600101555050600860405180604001604052806040518060400160405280600481526020017f70616e740000000000000000000000000000000000000000000000000000000081525081526020016008815250908060018154018082558091505060019003906000526020600020906002020160009091909190915060008201518160000190816200023291906200055b565b50602082015181600101555050600860405180604001604052806040518060400160405280600481526020017f62656c74000000000000000000000000000000000000000000000000000000008152508152602001600581525090806001815401808255809150506001900390600052602060002090600202016000909190919091506000820151816000019081620002cc91906200055b565b5060208201518160010155505050506200082b565b600081519050919050565b7f4e487b7100000000000000000000000000000000000000000000000000000000600052604160045260246000fd5b7f4e487b7100000000000000000000000000000000000000000000000000000000600052602260045260246000fd5b600060028204905060018216806200036357607f821691505b6020821081036200037957620003786200031b565b5b50919050565b60008190508160005260206000209050919050565b60006020601f8301049050919050565b600082821b905092915050565b600060088302620003e37fffffffffffffffffffffffffffffffffffffffffffffffffffffffffffffffff82620003a4565b620003ef8683620003a4565b95508019841693508086168417925050509392505050565b6000819050919050565b6000819050919050565b60006200043c62000436620004308462000407565b62000411565b62000407565b9050919050565b6000819050919050565b62000458836200041b565b62000470620004678262000443565b848454620003b1565b825550505050565b600090565b6200048762000478565b620004948184846200044d565b505050565b5b81811015620004bc57620004b06000826200047d565b6001810190506200049a565b5050565b601f8211156200050b57620004d5816200037f565b620004e08462000394565b81016020851015620004f0578190505b62000508620004ff8562000394565b83018262000499565b50505b505050565b600082821c905092915050565b6000620005306000198460080262000510565b1980831691505092915050565b60006200054b83836200051d565b9150826002028217905092915050565b6200056682620002e1565b67ffffffffffffffff811115620005825762000581620002ec565b5b6200058e82546200034a565b6200059b828285620004c0565b600060209050601f831160018114620005d35760008415620005be578287015190505b620005ca85826200053d565b8655506200063a565b601f198416620005e3866200037f565b60005b828110156200060d57848901518255600182019150602085019450602081019050620005e6565b868310156200062d578489015162000629601f8916826200051d565b8355505b6001600288020188555050505b505050505050565b6000604051905090565b600080fd5b600080fd5b600080fd5b600080fd5b6000601f19601f8301169050919050565b6200067c8262000660565b810181811067ffffffffffffffff821117156200069e576200069d620002ec565b5b80604052505050565b6000620006b362000642565b9050620006c1828262000671565b919050565b600067ffffffffffffffff821115620006e457620006e3620002ec565b5b620006ef8262000660565b9050602081019050919050565b60005b838110156200071c578082015181840152602081019050620006ff565b60008484015250505050565b60006200073f6200073984620006c6565b620006a7565b9050828152602081018484840111156200075e576200075d6200065b565b5b6200076b848285620006fc565b509392505050565b600082601f8301126200078b576200078a62000656565b5b81516200079d84826020860162000728565b91505092915050565b60008060408385031215620007c057620007bf6200064c565b5b600083015167ffffffffffffffff811115620007e157620007e062000651565b5b620007ef8582860162000773565b925050602083015167ffffffffffffffff81111562000813576200081262000651565b5b620008218582860162000773565b9150509250929050565b612765806200083b6000396000f3fe608060405234801561001057600080fd5b50600436106100cf5760003560e01c806362d6bbdf1161008c578063a9059cbb11610066578063a9059cbb1461024c578063b1b86b131461027c578063dd62ed3e14610298578063e211cd6d146102c8576100cf565b806362d6bbdf146101d057806370a08231146101ec57806370cd5a801461021c576100cf565b8063095ea7b3146100d457806318160ddd1461010457806323b872dd14610122578063314563c41461015257806340c10f191461017057806342966c68146101a0575b600080fd5b6100ee60048036038101906100e991906117d0565b6102f8565b6040516100fb919061182b565b60405180910390f35b61010c610556565b6040516101199190611855565b60405180910390f35b61013c60048036038101906101379190611870565b610560565b604051610149919061182b565b60405180910390f35b61015a6107fe565b6040516101679190611953565b60405180910390f35b61018a600480360381019061018591906117d0565b6108f2565b604051610197919061182b565b60405180910390f35b6101ba60048036038101906101b59190611975565b610a36565b6040516101c7919061182b565b60405180910390f35b6101ea60048036038101906101e59190611ad7565b610bbb565b005b61020660048036038101906102019190611b33565b610cea565b6040516102139190611855565b60405180910390f35b61023660048036038101906102319190611b33565b610d33565b6040516102439190611c6c565b60405180910390f35b610266600480360381019061026191906117d0565b610e4b565b604051610273919061182b565b60405180910390f35b61029660048036038101906102919190611ad7565b6110ac565b005b6102b260048036038101906102ad9190611c8e565b6114b3565b6040516102bf9190611855565b60405180910390f35b6102e260048036038101906102dd9190611cce565b61153a565b6040516102ef9190611855565b60405180910390f35b6000803390506000600360008373ffffffffffffffffffffffffffffffffffffffff1673ffffffffffffffffffffffffffffffffffffffff168152602001908152602001600020549050600073ffffffffffffffffffffffffffffffffffffffff168573ffffffffffffffffffffffffffffffffffffffff16036103b357846040517f9cfea5830000000000000000000000000000000000000000000000000000000081526004016103aa9190611d39565b60405180910390fd5b838110156103fc578181856040517fdb42144d0000000000000000000000000000000000000000000000000000000081526004016103f393929190611d54565b60405180910390fd5b83600360008473ffffffffffffffffffffffffffffffffffffffff1673ffffffffffffffffffffffffffffffffffffffff168152602001908152602001600020600082825461044b9190611dba565b9250508190555083600760008473ffffffffffffffffffffffffffffffffffffffff1673ffffffffffffffffffffffffffffffffffffffff16815260200190815260200160002060008773ffffffffffffffffffffffffffffffffffffffff1673ffffffffffffffffffffffffffffffffffffffff16815260200190815260200160002060008282546104de9190611dee565b925050819055508473ffffffffffffffffffffffffffffffffffffffff168273ffffffffffffffffffffffffffffffffffffffff167f8c5be1e5ebec7d5bd14f71427d1e84f3dd0314c0f7b2291e5b200ac8c7c3b925866040516105429190611855565b60405180910390a360019250505092915050565b6000600654905090565b6000803390506000600760008773ffffffffffffffffffffffffffffffffffffffff1673ffffffffffffffffffffffffffffffffffffffff16815260200190815260200160002060008373ffffffffffffffffffffffffffffffffffffffff1673ffffffffffffffffffffffffffffffffffffffff168152602001908152602001600020549050600073ffffffffffffffffffffffffffffffffffffffff168573ffffffffffffffffffffffffffffffffffffffff160361065857846040517f9cfea58300000000000000000000000000000000000000000000000000000000815260040161064f9190611d39565b60405180910390fd5b838110156106a357818682866040517f91beda2400000000000000000000000000000000000000000000000000000000815260040161069a9493929190611e22565b60405180910390fd5b83600760008873ffffffffffffffffffffffffffffffffffffffff1673ffffffffffffffffffffffffffffffffffffffff16815260200190815260200160002060008473ffffffffffffffffffffffffffffffffffffffff1673ffffffffffffffffffffffffffffffffffffffff168152602001908152602001600020600082825461072f9190611dba565b9250508190555083600360008773ffffffffffffffffffffffffffffffffffffffff1673ffffffffffffffffffffffffffffffffffffffff16815260200190815260200160002060008282546107859190611dee565b925050819055508473ffffffffffffffffffffffffffffffffffffffff168673ffffffffffffffffffffffffffffffffffffffff167fddf252ad1be2c89b69c2b068fc378daa952ba7f163c4a11628f55a4df523b3ef866040516107e99190611855565b60405180910390a36001925050509392505050565b6060600060405180602001604052806000815250905060005b6008805490508110156108ea57816008828154811061083957610838611e67565b5b90600052602060002090600202016000016108786008848154811061086157610860611e67565b5b9060005260206000209060020201600101546115a0565b60405160200161088a93929190612062565b604051602081830303815290604052915060016008805490506108ad9190611dba565b8110156108d757816040516020016108c591906120f5565b60405160208183030381529060405291505b80806108e290612117565b915050610817565b508091505090565b6000600260009054906101000a900473ffffffffffffffffffffffffffffffffffffffff1673ffffffffffffffffffffffffffffffffffffffff163373ffffffffffffffffffffffffffffffffffffffff1614610984576040517f08c379a000000000000000000000000000000000000000000000000000000000815260040161097b906121d1565b60405180910390fd5b81600360008573ffffffffffffffffffffffffffffffffffffffff1673ffffffffffffffffffffffffffffffffffffffff16815260200190815260200160002060008282546109d39190611dee565b9250508190555081600660008282546109ec9190611dee565b925050819055507f0f6798a560793a54c3bcfe86a93cde1e73087d944c0ea20544137d41213968858383604051610a249291906121f1565b60405180910390a16001905092915050565b6000803390506000600360008373ffffffffffffffffffffffffffffffffffffffff1673ffffffffffffffffffffffffffffffffffffffff16815260200190815260200160002054905083600360008473ffffffffffffffffffffffffffffffffffffffff1673ffffffffffffffffffffffffffffffffffffffff168152602001908152602001600020541015610b08578181856040517fdb42144d000000000000000000000000000000000000000000000000000000008152600401610aff93929190611d54565b60405180910390fd5b83600360008473ffffffffffffffffffffffffffffffffffffffff1673ffffffffffffffffffffffffffffffffffffffff1681526020019081526020016000206000828254610b579190611dba565b925050819055508360066000828254610b709190611dba565b925050819055507fcc16f5dbb4873280815c1ee09dbd06736cffcc184412cf7a71a0fdb75d397ca58285604051610ba89291906121f1565b60405180910390a1600192505050919050565b600260009054906101000a900473ffffffffffffffffffffffffffffffffffffffff1673ffffffffffffffffffffffffffffffffffffffff163373ffffffffffffffffffffffffffffffffffffffff1614610c4b576040517f08c379a0000000000000000000000000000000000000000000000000000000008152600401610c429061228c565b60405180910390fd5b600860405180604001604052808481526020018381525090806001815401808255809150506001900390600052602060002090600202016000909190919091506000820151816000019081610ca09190612443565b506020820151816001015550507fe4cee8b4b346e9fc68b7e9892799bbd7758269373bcf9da8bcb20e89ade95c1d8282604051610cde929190612515565b60405180910390a15050565b6000600360008373ffffffffffffffffffffffffffffffffffffffff1673ffffffffffffffffffffffffffffffffffffffff168152602001908152602001600020549050919050565b6060600460008373ffffffffffffffffffffffffffffffffffffffff1673ffffffffffffffffffffffffffffffffffffffff168152602001908152602001600020805480602002602001604051908101604052809291908181526020016000905b82821015610e40578382906000526020600020018054610db390611f01565b80601f0160208091040260200160405190810160405280929190818152602001828054610ddf90611f01565b8015610e2c5780601f10610e0157610100808354040283529160200191610e2c565b820191906000526020600020905b815481529060010190602001808311610e0f57829003601f168201915b505050505081526020019060010190610d94565b505050509050919050565b60008073ffffffffffffffffffffffffffffffffffffffff168373ffffffffffffffffffffffffffffffffffffffff1603610ebe5760006040517f9cfea583000000000000000000000000000000000000000000000000000000008152600401610eb59190611d39565b60405180910390fd5b60003390506000600360008373ffffffffffffffffffffffffffffffffffffffff1673ffffffffffffffffffffffffffffffffffffffff16815260200190815260200160002054905083600360008473ffffffffffffffffffffffffffffffffffffffff1673ffffffffffffffffffffffffffffffffffffffff168152602001908152602001600020541015610f8f578181856040517fdb42144d000000000000000000000000000000000000000000000000000000008152600401610f8693929190611d54565b60405180910390fd5b83600360008473ffffffffffffffffffffffffffffffffffffffff1673ffffffffffffffffffffffffffffffffffffffff1681526020019081526020016000206000828254610fde9190611dba565b9250508190555083600360008773ffffffffffffffffffffffffffffffffffffffff1673ffffffffffffffffffffffffffffffffffffffff16815260200190815260200160002060008282546110349190611dee565b925050819055508473ffffffffffffffffffffffffffffffffffffffff168273ffffffffffffffffffffffffffffffffffffffff167fddf252ad1be2c89b69c2b068fc378daa952ba7f163c4a11628f55a4df523b3ef866040516110989190611855565b60405180910390a360019250505092915050565b60003390506000600360008373ffffffffffffffffffffffffffffffffffffffff1673ffffffffffffffffffffffffffffffffffffffff16815260200190815260200160002054905082600360008473ffffffffffffffffffffffffffffffffffffffff1673ffffffffffffffffffffffffffffffffffffffff16815260200190815260200160002054101561117d578181846040517fdb42144d00000000000000000000000000000000000000000000000000000000815260040161117493929190611d54565b60405180910390fd5b6000806000905060005b60088054905081101561124f57866040516020016111a59190612545565b60405160208183030381529060405280519060200120600882815481106111cf576111ce611e67565b5b90600052602060002090600202016000016040516020016111f0919061255c565b604051602081830303815290604052805190602001200361123c576008818154811061121f5761121e611e67565b5b90600052602060002090600202016001015492506001915061124f565b808061124790612117565b915050611187565b5080611290576040517f08c379a0000000000000000000000000000000000000000000000000000000008152600401611287906125bf565b60405180910390fd5b8185146112d2576040517f08c379a00000000000000000000000000000000000000000000000000000000081526004016112c99061262b565b60405180910390fd5b84600360008673ffffffffffffffffffffffffffffffffffffffff1673ffffffffffffffffffffffffffffffffffffffff16815260200190815260200160002060008282546113219190611dba565b92505081905550600460008573ffffffffffffffffffffffffffffffffffffffff1673ffffffffffffffffffffffffffffffffffffffff168152602001908152602001600020869080600181540180825580915050600190039060005260206000200160009091909190915090816113999190612443565b506001600560008673ffffffffffffffffffffffffffffffffffffffff1673ffffffffffffffffffffffffffffffffffffffff168152602001908152602001600020876040516113e99190612545565b908152602001604051809103902060008282546114069190611dee565b925050819055503073ffffffffffffffffffffffffffffffffffffffff168473ffffffffffffffffffffffffffffffffffffffff167fddf252ad1be2c89b69c2b068fc378daa952ba7f163c4a11628f55a4df523b3ef8760405161146a9190611855565b60405180910390a37fcc16f5dbb4873280815c1ee09dbd06736cffcc184412cf7a71a0fdb75d397ca584866040516114a39291906121f1565b60405180910390a1505050505050565b6000600760008473ffffffffffffffffffffffffffffffffffffffff1673ffffffffffffffffffffffffffffffffffffffff16815260200190815260200160002060008373ffffffffffffffffffffffffffffffffffffffff1673ffffffffffffffffffffffffffffffffffffffff16815260200190815260200160002054905092915050565b6000600560008473ffffffffffffffffffffffffffffffffffffffff1673ffffffffffffffffffffffffffffffffffffffff168152602001908152602001600020826040516115899190612545565b908152602001604051809103902054905092915050565b6060600082036115e7576040518060400160405280600181526020017f30000000000000000000000000000000000000000000000000000000000000008152509050611723565b600082905060005b6000821461161957808061160290612117565b915050600a82611612919061267a565b91506115ef565b60008167ffffffffffffffff811115611635576116346119ac565b5b6040519080825280601f01601f1916602001820160405280156116675781602001600182028036833780820191505090505b50905060008290505b6000861461171b576001816116859190611dba565b90506000600a8088611697919061267a565b6116a191906126ab565b876116ac9190611dba565b60306116b891906126fa565b905060008160f81b9050808484815181106116d6576116d5611e67565b5b60200101907effffffffffffffffffffffffffffffffffffffffffffffffffffffffffffff1916908160001a905350600a88611712919061267a565b97505050611670565b819450505050505b919050565b6000604051905090565b600080fd5b600080fd5b600073ffffffffffffffffffffffffffffffffffffffff82169050919050565b60006117678261173c565b9050919050565b6117778161175c565b811461178257600080fd5b50565b6000813590506117948161176e565b92915050565b6000819050919050565b6117ad8161179a565b81146117b857600080fd5b50565b6000813590506117ca816117a4565b92915050565b600080604083850312156117e7576117e6611732565b5b60006117f585828601611785565b9250506020611806858286016117bb565b9150509250929050565b60008115159050919050565b61182581611810565b82525050565b6000602082019050611840600083018461181c565b92915050565b61184f8161179a565b82525050565b600060208201905061186a6000830184611846565b92915050565b60008060006060848603121561188957611888611732565b5b600061189786828701611785565b93505060206118a886828701611785565b92505060406118b9868287016117bb565b9150509250925092565b600081519050919050565b600082825260208201905092915050565b60005b838110156118fd5780820151818401526020810190506118e2565b60008484015250505050565b6000601f19601f8301169050919050565b6000611925826118c3565b61192f81856118ce565b935061193f8185602086016118df565b61194881611909565b840191505092915050565b6000602082019050818103600083015261196d818461191a565b905092915050565b60006020828403121561198b5761198a611732565b5b6000611999848285016117bb565b91505092915050565b600080fd5b600080fd5b7f4e487b7100000000000000000000000000000000000000000000000000000000600052604160045260246000fd5b6119e482611909565b810181811067ffffffffffffffff82111715611a0357611a026119ac565b5b80604052505050565b6000611a16611728565b9050611a2282826119db565b919050565b600067ffffffffffffffff821115611a4257611a416119ac565b5b611a4b82611909565b9050602081019050919050565b82818337600083830152505050565b6000611a7a611a7584611a27565b611a0c565b905082815260208101848484011115611a9657611a956119a7565b5b611aa1848285611a58565b509392505050565b600082601f830112611abe57611abd6119a2565b5b8135611ace848260208601611a67565b91505092915050565b60008060408385031215611aee57611aed611732565b5b600083013567ffffffffffffffff811115611b0c57611b0b611737565b5b611b1885828601611aa9565b9250506020611b29858286016117bb565b9150509250929050565b600060208284031215611b4957611b48611732565b5b6000611b5784828501611785565b91505092915050565b600081519050919050565b600082825260208201905092915050565b6000819050602082019050919050565b600082825260208201905092915050565b6000611ba8826118c3565b611bb28185611b8c565b9350611bc28185602086016118df565b611bcb81611909565b840191505092915050565b6000611be28383611b9d565b905092915050565b6000602082019050919050565b6000611c0282611b60565b611c0c8185611b6b565b935083602082028501611c1e85611b7c565b8060005b85811015611c5a5784840389528151611c3b8582611bd6565b9450611c4683611bea565b925060208a01995050600181019050611c22565b50829750879550505050505092915050565b60006020820190508181036000830152611c868184611bf7565b905092915050565b60008060408385031215611ca557611ca4611732565b5b6000611cb385828601611785565b9250506020611cc485828601611785565b9150509250929050565b60008060408385031215611ce557611ce4611732565b5b6000611cf385828601611785565b925050602083013567ffffffffffffffff811115611d1457611d13611737565b5b611d2085828601611aa9565b9150509250929050565b611d338161175c565b82525050565b6000602082019050611d4e6000830184611d2a565b92915050565b6000606082019050611d696000830186611d2a565b611d766020830185611846565b611d836040830184611846565b949350505050565b7f4e487b7100000000000000000000000000000000000000000000000000000000600052601160045260246000fd5b6000611dc58261179a565b9150611dd08361179a565b9250828203905081811115611de857611de7611d8b565b5b92915050565b6000611df98261179a565b9150611e048361179a565b9250828201905080821115611e1c57611e1b611d8b565b5b92915050565b6000608082019050611e376000830187611d2a565b611e446020830186611d2a565b611e516040830185611846565b611e5e6060830184611846565b95945050505050565b7f4e487b7100000000000000000000000000000000000000000000000000000000600052603260045260246000fd5b600081905092915050565b6000611eac826118c3565b611eb68185611e96565b9350611ec68185602086016118df565b80840191505092915050565b7f4e487b7100000000000000000000000000000000000000000000000000000000600052602260045260246000fd5b60006002820490506001821680611f1957607f821691505b602082108103611f2c57611f2b611ed2565b5b50919050565b60008190508160005260206000209050919050565b60008154611f5481611f01565b611f5e8186611e96565b94506001821660008114611f795760018114611f8e57611fc1565b60ff1983168652811515820286019350611fc1565b611f9785611f32565b60005b83811015611fb957815481890152600182019150602081019050611f9a565b838801955050505b50505092915050565b7f2800000000000000000000000000000000000000000000000000000000000000600082015250565b6000612000600183611e96565b915061200b82611fca565b600182019050919050565b7f2900000000000000000000000000000000000000000000000000000000000000600082015250565b600061204c600183611e96565b915061205782612016565b600182019050919050565b600061206e8286611ea1565b915061207a8285611f47565b915061208582611ff3565b91506120918284611ea1565b915061209c8261203f565b9150819050949350505050565b7f2c20000000000000000000000000000000000000000000000000000000000000600082015250565b60006120df600283611e96565b91506120ea826120a9565b600282019050919050565b60006121018284611ea1565b915061210c826120d2565b915081905092915050565b60006121228261179a565b91507fffffffffffffffffffffffffffffffffffffffffffffffffffffffffffffffff820361215457612153611d8b565b5b600182019050919050565b7f4f6e6c79206f776e657220697320616c6c6f77656420746f20706572666f726d60008201527f2074686973206f7065726174696f6e0000000000000000000000000000000000602082015250565b60006121bb602f836118ce565b91506121c68261215f565b604082019050919050565b600060208201905081810360008301526121ea816121ae565b9050919050565b60006040820190506122066000830185611d2a565b6122136020830184611846565b9392505050565b7f4f6e6c79206f776e65722063616e20616464206974656d7320746f207468652060008201527f696e76656e746f72790000000000000000000000000000000000000000000000602082015250565b60006122766029836118ce565b91506122818261221a565b604082019050919050565b600060208201905081810360008301526122a581612269565b9050919050565b60006020601f8301049050919050565b600082821b905092915050565b6000600883026122f97fffffffffffffffffffffffffffffffffffffffffffffffffffffffffffffffff826122bc565b61230386836122bc565b95508019841693508086168417925050509392505050565b6000819050919050565b600061234061233b6123368461179a565b61231b565b61179a565b9050919050565b6000819050919050565b61235a83612325565b61236e61236682612347565b8484546122c9565b825550505050565b600090565b612383612376565b61238e818484612351565b505050565b5b818110156123b2576123a760008261237b565b600181019050612394565b5050565b601f8211156123f7576123c881611f32565b6123d1846122ac565b810160208510156123e0578190505b6123f46123ec856122ac565b830182612393565b50505b505050565b600082821c905092915050565b600061241a600019846008026123fc565b1980831691505092915050565b60006124338383612409565b9150826002028217905092915050565b61244c826118c3565b67ffffffffffffffff811115612465576124646119ac565b5b61246f8254611f01565b61247a8282856123b6565b600060209050601f8311600181146124ad576000841561249b578287015190505b6124a58582612427565b86555061250d565b601f1984166124bb86611f32565b60005b828110156124e3578489015182556001820191506020850194506020810190506124be565b8683101561250057848901516124fc601f891682612409565b8355505b6001600288020188555050505b505050505050565b6000604082019050818103600083015261252f818561191a565b905061253e6020830184611846565b9392505050565b60006125518284611ea1565b915081905092915050565b60006125688284611f47565b915081905092915050565b7f4974656d206e6f7420666f756e6420696e20696e76656e746f72790000000000600082015250565b60006125a9601b836118ce565b91506125b482612573565b602082019050919050565b600060208201905081810360008301526125d88161259c565b9050919050565b7f496e636f72726563742076616c75652073656e74000000000000000000000000600082015250565b60006126156014836118ce565b9150612620826125df565b602082019050919050565b6000602082019050818103600083015261264481612608565b9050919050565b7f4e487b7100000000000000000000000000000000000000000000000000000000600052601260045260246000fd5b60006126858261179a565b91506126908361179a565b9250826126a05761269f61264b565b5b828204905092915050565b60006126b68261179a565b91506126c18361179a565b92508282026126cf8161179a565b915082820484148315176126e6576126e5611d8b565b5b5092915050565b600060ff82169050919050565b6000612705826126ed565b9150612710836126ed565b9250828201905060ff81111561272957612728611d8b565b5b9291505056fea2646970667358221220549fb3e85e9802845c44a0efa62901033f319ffaeb6cce9a6526c321481337cf64736f6c63430008140033",
  "linkReferences": {},
  "deployedLinkReferences": {}
}